{
  "_format": "hh-sol-artifact-1",
  "contractName": "ProfileNFT",
  "sourceName": "contracts/ProfileNFT.sol",
  "abi": [
    {
      "inputs": [
        {
          "internalType": "address",
          "name": "_factoryAddress",
          "type": "address"
        }
      ],
      "stateMutability": "nonpayable",
      "type": "constructor"
    },
    {
      "inputs": [
        {
          "internalType": "address",
          "name": "sender",
          "type": "address"
        },
        {
          "internalType": "uint256",
          "name": "tokenId",
          "type": "uint256"
        },
        {
          "internalType": "address",
          "name": "owner",
          "type": "address"
        }
      ],
      "name": "ERC721IncorrectOwner",
      "type": "error"
    },
    {
      "inputs": [
        {
          "internalType": "address",
          "name": "operator",
          "type": "address"
        },
        {
          "internalType": "uint256",
          "name": "tokenId",
          "type": "uint256"
        }
      ],
      "name": "ERC721InsufficientApproval",
      "type": "error"
    },
    {
      "inputs": [
        {
          "internalType": "address",
          "name": "approver",
          "type": "address"
        }
      ],
      "name": "ERC721InvalidApprover",
      "type": "error"
    },
    {
      "inputs": [
        {
          "internalType": "address",
          "name": "operator",
          "type": "address"
        }
      ],
      "name": "ERC721InvalidOperator",
      "type": "error"
    },
    {
      "inputs": [
        {
          "internalType": "address",
          "name": "owner",
          "type": "address"
        }
      ],
      "name": "ERC721InvalidOwner",
      "type": "error"
    },
    {
      "inputs": [
        {
          "internalType": "address",
          "name": "receiver",
          "type": "address"
        }
      ],
      "name": "ERC721InvalidReceiver",
      "type": "error"
    },
    {
      "inputs": [
        {
          "internalType": "address",
          "name": "sender",
          "type": "address"
        }
      ],
      "name": "ERC721InvalidSender",
      "type": "error"
    },
    {
      "inputs": [
        {
          "internalType": "uint256",
          "name": "tokenId",
          "type": "uint256"
        }
      ],
      "name": "ERC721NonexistentToken",
      "type": "error"
    },
    {
      "inputs": [
        {
          "internalType": "address",
          "name": "owner",
          "type": "address"
        }
      ],
      "name": "OwnableInvalidOwner",
      "type": "error"
    },
    {
      "inputs": [
        {
          "internalType": "address",
          "name": "account",
          "type": "address"
        }
      ],
      "name": "OwnableUnauthorizedAccount",
      "type": "error"
    },
    {
      "anonymous": false,
      "inputs": [
        {
          "indexed": true,
          "internalType": "address",
          "name": "owner",
          "type": "address"
        },
        {
          "indexed": true,
          "internalType": "address",
          "name": "approved",
          "type": "address"
        },
        {
          "indexed": true,
          "internalType": "uint256",
          "name": "tokenId",
          "type": "uint256"
        }
      ],
      "name": "Approval",
      "type": "event"
    },
    {
      "anonymous": false,
      "inputs": [
        {
          "indexed": true,
          "internalType": "address",
          "name": "owner",
          "type": "address"
        },
        {
          "indexed": true,
          "internalType": "address",
          "name": "operator",
          "type": "address"
        },
        {
          "indexed": false,
          "internalType": "bool",
          "name": "approved",
          "type": "bool"
        }
      ],
      "name": "ApprovalForAll",
      "type": "event"
    },
    {
      "anonymous": false,
      "inputs": [
        {
          "indexed": false,
          "internalType": "uint256",
          "name": "_fromTokenId",
          "type": "uint256"
        },
        {
          "indexed": false,
          "internalType": "uint256",
          "name": "_toTokenId",
          "type": "uint256"
        }
      ],
      "name": "BatchMetadataUpdate",
      "type": "event"
    },
    {
      "anonymous": false,
      "inputs": [
        {
          "indexed": false,
          "internalType": "uint256",
          "name": "_tokenId",
          "type": "uint256"
        }
      ],
      "name": "MetadataUpdate",
      "type": "event"
    },
    {
      "anonymous": false,
      "inputs": [
        {
          "indexed": true,
          "internalType": "address",
          "name": "previousOwner",
          "type": "address"
        },
        {
          "indexed": true,
          "internalType": "address",
          "name": "newOwner",
          "type": "address"
        }
      ],
      "name": "OwnershipTransferred",
      "type": "event"
    },
    {
      "anonymous": false,
      "inputs": [
        {
          "indexed": true,
          "internalType": "uint256",
          "name": "profileId",
          "type": "uint256"
        },
        {
          "indexed": false,
          "internalType": "uint256",
          "name": "newScore",
          "type": "uint256"
        }
      ],
      "name": "ScoreUpdated",
      "type": "event"
    },
    {
      "anonymous": false,
      "inputs": [
        {
          "indexed": true,
          "internalType": "address",
          "name": "from",
          "type": "address"
        },
        {
          "indexed": true,
          "internalType": "address",
          "name": "to",
          "type": "address"
        },
        {
          "indexed": true,
          "internalType": "uint256",
          "name": "tokenId",
          "type": "uint256"
        }
      ],
      "name": "Transfer",
      "type": "event"
    },
    {
      "inputs": [
        {
          "internalType": "address",
          "name": "to",
          "type": "address"
        },
        {
          "internalType": "uint256",
          "name": "tokenId",
          "type": "uint256"
        }
      ],
      "name": "approve",
      "outputs": [],
      "stateMutability": "nonpayable",
      "type": "function"
    },
    {
      "inputs": [
        {
          "internalType": "address",
          "name": "owner",
          "type": "address"
        }
      ],
      "name": "balanceOf",
      "outputs": [
        {
          "internalType": "uint256",
          "name": "",
          "type": "uint256"
        }
      ],
      "stateMutability": "view",
      "type": "function"
    },
    {
      "inputs": [],
      "name": "factoryAddress",
      "outputs": [
        {
          "internalType": "address",
          "name": "",
          "type": "address"
        }
      ],
      "stateMutability": "view",
      "type": "function"
    },
    {
      "inputs": [
        {
          "internalType": "uint256",
          "name": "tokenId",
          "type": "uint256"
        }
      ],
      "name": "getApproved",
      "outputs": [
        {
          "internalType": "address",
          "name": "",
          "type": "address"
        }
      ],
      "stateMutability": "view",
      "type": "function"
    },
    {
      "inputs": [
        {
          "internalType": "uint256",
          "name": "profileId",
          "type": "uint256"
        }
      ],
      "name": "getProfileScore",
      "outputs": [
        {
          "internalType": "uint256",
          "name": "",
          "type": "uint256"
        }
      ],
      "stateMutability": "view",
      "type": "function"
    },
    {
      "inputs": [
        {
          "internalType": "address",
          "name": "owner",
          "type": "address"
        },
        {
          "internalType": "address",
          "name": "operator",
          "type": "address"
        }
      ],
      "name": "isApprovedForAll",
      "outputs": [
        {
          "internalType": "bool",
          "name": "",
          "type": "bool"
        }
      ],
      "stateMutability": "view",
      "type": "function"
    },
    {
      "inputs": [
        {
          "internalType": "address",
          "name": "to",
          "type": "address"
        },
        {
          "internalType": "uint256",
          "name": "profileId",
          "type": "uint256"
        },
        {
          "internalType": "string",
          "name": "tokenURI",
          "type": "string"
        }
      ],
      "name": "mintProfile",
      "outputs": [
        {
          "internalType": "uint256",
          "name": "",
          "type": "uint256"
        }
      ],
      "stateMutability": "nonpayable",
      "type": "function"
    },
    {
      "inputs": [],
      "name": "name",
      "outputs": [
        {
          "internalType": "string",
          "name": "",
          "type": "string"
        }
      ],
      "stateMutability": "view",
      "type": "function"
    },
    {
      "inputs": [],
      "name": "owner",
      "outputs": [
        {
          "internalType": "address",
          "name": "",
          "type": "address"
        }
      ],
      "stateMutability": "view",
      "type": "function"
    },
    {
      "inputs": [
        {
          "internalType": "uint256",
          "name": "tokenId",
          "type": "uint256"
        }
      ],
      "name": "ownerOf",
      "outputs": [
        {
          "internalType": "address",
          "name": "",
          "type": "address"
        }
      ],
      "stateMutability": "view",
      "type": "function"
    },
    {
      "inputs": [
        {
          "internalType": "uint256",
          "name": "",
          "type": "uint256"
        }
      ],
      "name": "profiles",
      "outputs": [
        {
          "internalType": "uint256",
          "name": "id",
          "type": "uint256"
        },
        {
          "internalType": "uint256",
          "name": "score",
          "type": "uint256"
        }
      ],
      "stateMutability": "view",
      "type": "function"
    },
    {
      "inputs": [],
      "name": "renounceOwnership",
      "outputs": [],
      "stateMutability": "nonpayable",
      "type": "function"
    },
    {
      "inputs": [
        {
          "internalType": "address",
          "name": "from",
          "type": "address"
        },
        {
          "internalType": "address",
          "name": "to",
          "type": "address"
        },
        {
          "internalType": "uint256",
          "name": "tokenId",
          "type": "uint256"
        }
      ],
      "name": "safeTransferFrom",
      "outputs": [],
      "stateMutability": "nonpayable",
      "type": "function"
    },
    {
      "inputs": [
        {
          "internalType": "address",
          "name": "from",
          "type": "address"
        },
        {
          "internalType": "address",
          "name": "to",
          "type": "address"
        },
        {
          "internalType": "uint256",
          "name": "tokenId",
          "type": "uint256"
        },
        {
          "internalType": "bytes",
          "name": "data",
          "type": "bytes"
        }
      ],
      "name": "safeTransferFrom",
      "outputs": [],
      "stateMutability": "nonpayable",
      "type": "function"
    },
    {
      "inputs": [
        {
          "internalType": "address",
          "name": "operator",
          "type": "address"
        },
        {
          "internalType": "bool",
          "name": "approved",
          "type": "bool"
        }
      ],
      "name": "setApprovalForAll",
      "outputs": [],
      "stateMutability": "nonpayable",
      "type": "function"
    },
    {
      "inputs": [
        {
          "internalType": "address",
          "name": "_factoryAddress",
          "type": "address"
        }
      ],
      "name": "setFactoryAddress",
      "outputs": [],
      "stateMutability": "nonpayable",
      "type": "function"
    },
    {
      "inputs": [
        {
          "internalType": "bytes4",
          "name": "interfaceId",
          "type": "bytes4"
        }
      ],
      "name": "supportsInterface",
      "outputs": [
        {
          "internalType": "bool",
          "name": "",
          "type": "bool"
        }
      ],
      "stateMutability": "view",
      "type": "function"
    },
    {
      "inputs": [],
      "name": "symbol",
      "outputs": [
        {
          "internalType": "string",
          "name": "",
          "type": "string"
        }
      ],
      "stateMutability": "view",
      "type": "function"
    },
    {
      "inputs": [
        {
          "internalType": "uint256",
          "name": "tokenId",
          "type": "uint256"
        }
      ],
      "name": "tokenURI",
      "outputs": [
        {
          "internalType": "string",
          "name": "",
          "type": "string"
        }
      ],
      "stateMutability": "view",
      "type": "function"
    },
    {
      "inputs": [
        {
          "internalType": "address",
          "name": "from",
          "type": "address"
        },
        {
          "internalType": "address",
          "name": "to",
          "type": "address"
        },
        {
          "internalType": "uint256",
          "name": "tokenId",
          "type": "uint256"
        }
      ],
      "name": "transferFrom",
      "outputs": [],
      "stateMutability": "nonpayable",
      "type": "function"
    },
    {
      "inputs": [
        {
          "internalType": "address",
          "name": "newOwner",
          "type": "address"
        }
      ],
      "name": "transferOwnership",
      "outputs": [],
      "stateMutability": "nonpayable",
      "type": "function"
    },
    {
      "inputs": [
        {
          "internalType": "uint256",
          "name": "profileId",
          "type": "uint256"
        },
        {
          "internalType": "uint256",
          "name": "newScore",
          "type": "uint256"
        }
      ],
      "name": "updateScore",
      "outputs": [],
      "stateMutability": "nonpayable",
      "type": "function"
    }
  ],
  "bytecode": "0x60806040523480156200001157600080fd5b5060405162003308380380620033088339818101604052810190620000379190620002c9565b336040518060400160405280600d81526020017f536f6369616c50726f66696c65000000000000000000000000000000000000008152506040518060400160405280600581526020017f5350524f460000000000000000000000000000000000000000000000000000008152508160009081620000b5919062000575565b508060019081620000c7919062000575565b505050600073ffffffffffffffffffffffffffffffffffffffff168173ffffffffffffffffffffffffffffffffffffffff16036200013f5760006040517f1e4fbdf70000000000000000000000000000000000000000000000000000000081526004016200013691906200066d565b60405180910390fd5b62000150816200019960201b60201c565b5080600960006101000a81548173ffffffffffffffffffffffffffffffffffffffff021916908373ffffffffffffffffffffffffffffffffffffffff160217905550506200068a565b6000600760009054906101000a900473ffffffffffffffffffffffffffffffffffffffff16905081600760006101000a81548173ffffffffffffffffffffffffffffffffffffffff021916908373ffffffffffffffffffffffffffffffffffffffff1602179055508173ffffffffffffffffffffffffffffffffffffffff168173ffffffffffffffffffffffffffffffffffffffff167f8be0079c531659141344cd1fd0a4f28419497f9722a3daafe3b4186f6b6457e060405160405180910390a35050565b600080fd5b600073ffffffffffffffffffffffffffffffffffffffff82169050919050565b6000620002918262000264565b9050919050565b620002a38162000284565b8114620002af57600080fd5b50565b600081519050620002c38162000298565b92915050565b600060208284031215620002e257620002e16200025f565b5b6000620002f284828501620002b2565b91505092915050565b600081519050919050565b7f4e487b7100000000000000000000000000000000000000000000000000000000600052604160045260246000fd5b7f4e487b7100000000000000000000000000000000000000000000000000000000600052602260045260246000fd5b600060028204905060018216806200037d57607f821691505b60208210810362000393576200039262000335565b5b50919050565b60008190508160005260206000209050919050565b60006020601f8301049050919050565b600082821b905092915050565b600060088302620003fd7fffffffffffffffffffffffffffffffffffffffffffffffffffffffffffffffff82620003be565b620004098683620003be565b95508019841693508086168417925050509392505050565b6000819050919050565b6000819050919050565b600062000456620004506200044a8462000421565b6200042b565b62000421565b9050919050565b6000819050919050565b620004728362000435565b6200048a62000481826200045d565b848454620003cb565b825550505050565b600090565b620004a162000492565b620004ae81848462000467565b505050565b5b81811015620004d657620004ca60008262000497565b600181019050620004b4565b5050565b601f8211156200052557620004ef8162000399565b620004fa84620003ae565b810160208510156200050a578190505b620005226200051985620003ae565b830182620004b3565b50505b505050565b600082821c905092915050565b60006200054a600019846008026200052a565b1980831691505092915050565b600062000565838362000537565b9150826002028217905092915050565b6200058082620002fb565b67ffffffffffffffff8111156200059c576200059b62000306565b5b620005a8825462000364565b620005b5828285620004da565b600060209050601f831160018114620005ed5760008415620005d8578287015190505b620005e4858262000557565b86555062000654565b601f198416620005fd8662000399565b60005b82811015620006275784890151825560018201915060208501945060208101905062000600565b8683101562000647578489015162000643601f89168262000537565b8355505b6001600288020188555050505b505050505050565b620006678162000284565b82525050565b60006020820190506200068460008301846200065c565b92915050565b612c6e806200069a6000396000f3fe608060405234801561001057600080fd5b50600436106101425760003560e01c806383c17c55116100b8578063a22cb4651161007c578063a22cb46514610375578063b88d4fde14610391578063c36fe3d6146103ad578063c87b56dd146103de578063e985e9c51461040e578063f2fde38b1461043e57610142565b806383c17c55146102cf5780638da5cb5b146102eb5780638ec209241461030957806395d89b4114610339578063966dae0e1461035757610142565b806323b872dd1161010a57806323b872dd146101fd57806342842e0e146102195780636352211e1461023557806370a0823114610265578063715018a61461029557806374b8f40e1461029f57610142565b806301ffc9a71461014757806306fdde0314610177578063081812fc1461019557806309218e7b146101c5578063095ea7b3146101e1575b600080fd5b610161600480360381019061015c9190611f31565b61045a565b60405161016e9190611f79565b60405180910390f35b61017f6104bb565b60405161018c9190612024565b60405180910390f35b6101af60048036038101906101aa919061207c565b61054d565b6040516101bc91906120ea565b60405180910390f35b6101df60048036038101906101da9190612105565b610569565b005b6101fb60048036038101906101f69190612171565b6106c7565b005b610217600480360381019061021291906121b1565b6106dd565b005b610233600480360381019061022e91906121b1565b6107df565b005b61024f600480360381019061024a919061207c565b6107ff565b60405161025c91906120ea565b60405180910390f35b61027f600480360381019061027a9190612204565b610811565b60405161028c9190612240565b60405180910390f35b61029d6108cb565b005b6102b960048036038101906102b49190612390565b6108df565b6040516102c69190612240565b60405180910390f35b6102e960048036038101906102e49190612204565b610a46565b005b6102f3610a92565b60405161030091906120ea565b60405180910390f35b610323600480360381019061031e919061207c565b610abc565b6040516103309190612240565b60405180910390f35b610341610b52565b60405161034e9190612024565b60405180910390f35b61035f610be4565b60405161036c91906120ea565b60405180910390f35b61038f600480360381019061038a919061242b565b610c0a565b005b6103ab60048036038101906103a6919061250c565b610c20565b005b6103c760048036038101906103c2919061207c565b610c45565b6040516103d592919061258f565b60405180910390f35b6103f860048036038101906103f3919061207c565b610c69565b6040516104059190612024565b60405180910390f35b610428600480360381019061042391906125b8565b610d7c565b6040516104359190611f79565b60405180910390f35b61045860048036038101906104539190612204565b610e10565b005b6000634906490660e01b7bffffffffffffffffffffffffffffffffffffffffffffffffffffffff1916827bffffffffffffffffffffffffffffffffffffffffffffffffffffffff191614806104b457506104b382610e96565b5b9050919050565b6060600080546104ca90612627565b80601f01602080910402602001604051908101604052809291908181526020018280546104f690612627565b80156105435780601f1061051857610100808354040283529160200191610543565b820191906000526020600020905b81548152906001019060200180831161052657829003601f168201915b5050505050905090565b600061055882610f78565b5061056282611000565b9050919050565b600960009054906101000a900473ffffffffffffffffffffffffffffffffffffffff1673ffffffffffffffffffffffffffffffffffffffff163373ffffffffffffffffffffffffffffffffffffffff16146105f9576040517f08c379a00000000000000000000000000000000000000000000000000000000081526004016105f0906126ca565b60405180910390fd5b600073ffffffffffffffffffffffffffffffffffffffff1661061a8361103d565b73ffffffffffffffffffffffffffffffffffffffff1603610670576040517f08c379a000000000000000000000000000000000000000000000000000000000815260040161066790612736565b60405180910390fd5b806008600084815260200190815260200160002060010181905550817fefd5a7f141ae02cd40bc84ffe6ebb58811cb61dfd017746842a005c78bfed852826040516106bb9190612240565b60405180910390a25050565b6106d982826106d461107a565b611082565b5050565b600073ffffffffffffffffffffffffffffffffffffffff168273ffffffffffffffffffffffffffffffffffffffff160361074f5760006040517f64a0ae9200000000000000000000000000000000000000000000000000000000815260040161074691906120ea565b60405180910390fd5b6000610763838361075e61107a565b611094565b90508373ffffffffffffffffffffffffffffffffffffffff168173ffffffffffffffffffffffffffffffffffffffff16146107d9578382826040517f64283d7b0000000000000000000000000000000000000000000000000000000081526004016107d093929190612756565b60405180910390fd5b50505050565b6107fa83838360405180602001604052806000815250610c20565b505050565b600061080a82610f78565b9050919050565b60008073ffffffffffffffffffffffffffffffffffffffff168273ffffffffffffffffffffffffffffffffffffffff16036108845760006040517f89c62b6400000000000000000000000000000000000000000000000000000000815260040161087b91906120ea565b60405180910390fd5b600360008373ffffffffffffffffffffffffffffffffffffffff1673ffffffffffffffffffffffffffffffffffffffff168152602001908152602001600020549050919050565b6108d36112ae565b6108dd6000611335565b565b6000600960009054906101000a900473ffffffffffffffffffffffffffffffffffffffff1673ffffffffffffffffffffffffffffffffffffffff163373ffffffffffffffffffffffffffffffffffffffff1614610971576040517f08c379a0000000000000000000000000000000000000000000000000000000008152600401610968906126ca565b60405180910390fd5b600073ffffffffffffffffffffffffffffffffffffffff166109928461103d565b73ffffffffffffffffffffffffffffffffffffffff16146109e8576040517f08c379a00000000000000000000000000000000000000000000000000000000081526004016109df906127ff565b60405180910390fd5b6109f284846113fb565b6109fc83836114f4565b604051806040016040528084815260200160008152506008600085815260200190815260200160002060008201518160000155602082015181600101559050508290509392505050565b610a4e6112ae565b80600960006101000a81548173ffffffffffffffffffffffffffffffffffffffff021916908373ffffffffffffffffffffffffffffffffffffffff16021790555050565b6000600760009054906101000a900473ffffffffffffffffffffffffffffffffffffffff16905090565b60008073ffffffffffffffffffffffffffffffffffffffff16610ade8361103d565b73ffffffffffffffffffffffffffffffffffffffff1603610b34576040517f08c379a0000000000000000000000000000000000000000000000000000000008152600401610b2b90612736565b60405180910390fd5b60086000838152602001908152602001600020600101549050919050565b606060018054610b6190612627565b80601f0160208091040260200160405190810160405280929190818152602001828054610b8d90612627565b8015610bda5780601f10610baf57610100808354040283529160200191610bda565b820191906000526020600020905b815481529060010190602001808311610bbd57829003601f168201915b5050505050905090565b600960009054906101000a900473ffffffffffffffffffffffffffffffffffffffff1681565b610c1c610c1561107a565b8383611550565b5050565b610c2b8484846106dd565b610c3f610c3661107a565b858585856116bf565b50505050565b60086020528060005260406000206000915090508060000154908060010154905082565b6060610c7482610f78565b506000600660008481526020019081526020016000208054610c9590612627565b80601f0160208091040260200160405190810160405280929190818152602001828054610cc190612627565b8015610d0e5780601f10610ce357610100808354040283529160200191610d0e565b820191906000526020600020905b815481529060010190602001808311610cf157829003601f168201915b505050505090506000610d1f611870565b90506000815103610d34578192505050610d77565b600082511115610d69578082604051602001610d5192919061285b565b60405160208183030381529060405292505050610d77565b610d7284611887565b925050505b919050565b6000600560008473ffffffffffffffffffffffffffffffffffffffff1673ffffffffffffffffffffffffffffffffffffffff16815260200190815260200160002060008373ffffffffffffffffffffffffffffffffffffffff1673ffffffffffffffffffffffffffffffffffffffff16815260200190815260200160002060009054906101000a900460ff16905092915050565b610e186112ae565b600073ffffffffffffffffffffffffffffffffffffffff168173ffffffffffffffffffffffffffffffffffffffff1603610e8a5760006040517f1e4fbdf7000000000000000000000000000000000000000000000000000000008152600401610e8191906120ea565b60405180910390fd5b610e9381611335565b50565b60007f80ac58cd000000000000000000000000000000000000000000000000000000007bffffffffffffffffffffffffffffffffffffffffffffffffffffffff1916827bffffffffffffffffffffffffffffffffffffffffffffffffffffffff19161480610f6157507f5b5e139f000000000000000000000000000000000000000000000000000000007bffffffffffffffffffffffffffffffffffffffffffffffffffffffff1916827bffffffffffffffffffffffffffffffffffffffffffffffffffffffff1916145b80610f715750610f70826118f0565b5b9050919050565b600080610f848361103d565b9050600073ffffffffffffffffffffffffffffffffffffffff168173ffffffffffffffffffffffffffffffffffffffff1603610ff757826040517f7e273289000000000000000000000000000000000000000000000000000000008152600401610fee9190612240565b60405180910390fd5b80915050919050565b60006004600083815260200190815260200160002060009054906101000a900473ffffffffffffffffffffffffffffffffffffffff169050919050565b60006002600083815260200190815260200160002060009054906101000a900473ffffffffffffffffffffffffffffffffffffffff169050919050565b600033905090565b61108f838383600161195a565b505050565b6000806110a08461103d565b9050600073ffffffffffffffffffffffffffffffffffffffff168373ffffffffffffffffffffffffffffffffffffffff16146110e2576110e1818486611b1f565b5b600073ffffffffffffffffffffffffffffffffffffffff168173ffffffffffffffffffffffffffffffffffffffff16146111735761112460008560008061195a565b6001600360008373ffffffffffffffffffffffffffffffffffffffff1673ffffffffffffffffffffffffffffffffffffffff168152602001908152602001600020600082825403925050819055505b600073ffffffffffffffffffffffffffffffffffffffff168573ffffffffffffffffffffffffffffffffffffffff16146111f6576001600360008773ffffffffffffffffffffffffffffffffffffffff1673ffffffffffffffffffffffffffffffffffffffff168152602001908152602001600020600082825401925050819055505b846002600086815260200190815260200160002060006101000a81548173ffffffffffffffffffffffffffffffffffffffff021916908373ffffffffffffffffffffffffffffffffffffffff160217905550838573ffffffffffffffffffffffffffffffffffffffff168273ffffffffffffffffffffffffffffffffffffffff167fddf252ad1be2c89b69c2b068fc378daa952ba7f163c4a11628f55a4df523b3ef60405160405180910390a4809150509392505050565b6112b661107a565b73ffffffffffffffffffffffffffffffffffffffff166112d4610a92565b73ffffffffffffffffffffffffffffffffffffffff1614611333576112f761107a565b6040517f118cdaa700000000000000000000000000000000000000000000000000000000815260040161132a91906120ea565b60405180910390fd5b565b6000600760009054906101000a900473ffffffffffffffffffffffffffffffffffffffff16905081600760006101000a81548173ffffffffffffffffffffffffffffffffffffffff021916908373ffffffffffffffffffffffffffffffffffffffff1602179055508173ffffffffffffffffffffffffffffffffffffffff168173ffffffffffffffffffffffffffffffffffffffff167f8be0079c531659141344cd1fd0a4f28419497f9722a3daafe3b4186f6b6457e060405160405180910390a35050565b600073ffffffffffffffffffffffffffffffffffffffff168273ffffffffffffffffffffffffffffffffffffffff160361146d5760006040517f64a0ae9200000000000000000000000000000000000000000000000000000000815260040161146491906120ea565b60405180910390fd5b600061147b83836000611094565b9050600073ffffffffffffffffffffffffffffffffffffffff168173ffffffffffffffffffffffffffffffffffffffff16146114ef5760006040517f73c6ac6e0000000000000000000000000000000000000000000000000000000081526004016114e691906120ea565b60405180910390fd5b505050565b806006600084815260200190815260200160002090816115149190612a2b565b507ff8e1a15aba9398e019f0b49df1a4fde98ee17ae345cb5f6b5e2c27f5033e8ce7826040516115449190612240565b60405180910390a15050565b600073ffffffffffffffffffffffffffffffffffffffff168273ffffffffffffffffffffffffffffffffffffffff16036115c157816040517f5b08ba180000000000000000000000000000000000000000000000000000000081526004016115b891906120ea565b60405180910390fd5b80600560008573ffffffffffffffffffffffffffffffffffffffff1673ffffffffffffffffffffffffffffffffffffffff16815260200190815260200160002060008473ffffffffffffffffffffffffffffffffffffffff1673ffffffffffffffffffffffffffffffffffffffff16815260200190815260200160002060006101000a81548160ff0219169083151502179055508173ffffffffffffffffffffffffffffffffffffffff168373ffffffffffffffffffffffffffffffffffffffff167f17307eab39ab6107e8899845ad3d59bd9653f200f220920489ca2b5937696c31836040516116b29190611f79565b60405180910390a3505050565b60008373ffffffffffffffffffffffffffffffffffffffff163b1115611869578273ffffffffffffffffffffffffffffffffffffffff1663150b7a02868685856040518563ffffffff1660e01b815260040161171e9493929190612b52565b6020604051808303816000875af192505050801561175a57506040513d601f19601f820116820180604052508101906117579190612bb3565b60015b6117de573d806000811461178a576040519150601f19603f3d011682016040523d82523d6000602084013e61178f565b606091505b5060008151036117d657836040517f64a0ae920000000000000000000000000000000000000000000000000000000081526004016117cd91906120ea565b60405180910390fd5b805181602001fd5b63150b7a0260e01b7bffffffffffffffffffffffffffffffffffffffffffffffffffffffff1916817bffffffffffffffffffffffffffffffffffffffffffffffffffffffff19161461186757836040517f64a0ae9200000000000000000000000000000000000000000000000000000000815260040161185e91906120ea565b60405180910390fd5b505b5050505050565b606060405180602001604052806000815250905090565b606061189282610f78565b50600061189d611870565b905060008151116118bd57604051806020016040528060008152506118e8565b806118c784611be3565b6040516020016118d892919061285b565b6040516020818303038152906040525b915050919050565b60007f01ffc9a7000000000000000000000000000000000000000000000000000000007bffffffffffffffffffffffffffffffffffffffffffffffffffffffff1916827bffffffffffffffffffffffffffffffffffffffffffffffffffffffff1916149050919050565b80806119935750600073ffffffffffffffffffffffffffffffffffffffff168273ffffffffffffffffffffffffffffffffffffffff1614155b15611ac75760006119a384610f78565b9050600073ffffffffffffffffffffffffffffffffffffffff168373ffffffffffffffffffffffffffffffffffffffff1614158015611a0e57508273ffffffffffffffffffffffffffffffffffffffff168173ffffffffffffffffffffffffffffffffffffffff1614155b8015611a215750611a1f8184610d7c565b155b15611a6357826040517fa9fbf51f000000000000000000000000000000000000000000000000000000008152600401611a5a91906120ea565b60405180910390fd5b8115611ac557838573ffffffffffffffffffffffffffffffffffffffff168273ffffffffffffffffffffffffffffffffffffffff167f8c5be1e5ebec7d5bd14f71427d1e84f3dd0314c0f7b2291e5b200ac8c7c3b92560405160405180910390a45b505b836004600085815260200190815260200160002060006101000a81548173ffffffffffffffffffffffffffffffffffffffff021916908373ffffffffffffffffffffffffffffffffffffffff16021790555050505050565b611b2a838383611cb1565b611bde57600073ffffffffffffffffffffffffffffffffffffffff168373ffffffffffffffffffffffffffffffffffffffff1603611b9f57806040517f7e273289000000000000000000000000000000000000000000000000000000008152600401611b969190612240565b60405180910390fd5b81816040517f177e802f000000000000000000000000000000000000000000000000000000008152600401611bd5929190612be0565b60405180910390fd5b505050565b606060006001611bf284611d72565b01905060008167ffffffffffffffff811115611c1157611c10612265565b5b6040519080825280601f01601f191660200182016040528015611c435781602001600182028036833780820191505090505b509050600082602001820190505b600115611ca6578080600190039150507f3031323334353637383961626364656600000000000000000000000000000000600a86061a8153600a8581611c9a57611c99612c09565b5b04945060008503611c51575b819350505050919050565b60008073ffffffffffffffffffffffffffffffffffffffff168373ffffffffffffffffffffffffffffffffffffffff1614158015611d6957508273ffffffffffffffffffffffffffffffffffffffff168473ffffffffffffffffffffffffffffffffffffffff161480611d2a5750611d298484610d7c565b5b80611d6857508273ffffffffffffffffffffffffffffffffffffffff16611d5083611000565b73ffffffffffffffffffffffffffffffffffffffff16145b5b90509392505050565b600080600090507a184f03e93ff9f4daa797ed6e38ed64bf6a1f0100000000000000008310611dd0577a184f03e93ff9f4daa797ed6e38ed64bf6a1f0100000000000000008381611dc657611dc5612c09565b5b0492506040810190505b6d04ee2d6d415b85acef81000000008310611e0d576d04ee2d6d415b85acef81000000008381611e0357611e02612c09565b5b0492506020810190505b662386f26fc100008310611e3c57662386f26fc100008381611e3257611e31612c09565b5b0492506010810190505b6305f5e1008310611e65576305f5e1008381611e5b57611e5a612c09565b5b0492506008810190505b6127108310611e8a576127108381611e8057611e7f612c09565b5b0492506004810190505b60648310611ead5760648381611ea357611ea2612c09565b5b0492506002810190505b600a8310611ebc576001810190505b80915050919050565b6000604051905090565b600080fd5b600080fd5b60007fffffffff0000000000000000000000000000000000000000000000000000000082169050919050565b611f0e81611ed9565b8114611f1957600080fd5b50565b600081359050611f2b81611f05565b92915050565b600060208284031215611f4757611f46611ecf565b5b6000611f5584828501611f1c565b91505092915050565b60008115159050919050565b611f7381611f5e565b82525050565b6000602082019050611f8e6000830184611f6a565b92915050565b600081519050919050565b600082825260208201905092915050565b60005b83811015611fce578082015181840152602081019050611fb3565b60008484015250505050565b6000601f19601f8301169050919050565b6000611ff682611f94565b6120008185611f9f565b9350612010818560208601611fb0565b61201981611fda565b840191505092915050565b6000602082019050818103600083015261203e8184611feb565b905092915050565b6000819050919050565b61205981612046565b811461206457600080fd5b50565b60008135905061207681612050565b92915050565b60006020828403121561209257612091611ecf565b5b60006120a084828501612067565b91505092915050565b600073ffffffffffffffffffffffffffffffffffffffff82169050919050565b60006120d4826120a9565b9050919050565b6120e4816120c9565b82525050565b60006020820190506120ff60008301846120db565b92915050565b6000806040838503121561211c5761211b611ecf565b5b600061212a85828601612067565b925050602061213b85828601612067565b9150509250929050565b61214e816120c9565b811461215957600080fd5b50565b60008135905061216b81612145565b92915050565b6000806040838503121561218857612187611ecf565b5b60006121968582860161215c565b92505060206121a785828601612067565b9150509250929050565b6000806000606084860312156121ca576121c9611ecf565b5b60006121d88682870161215c565b93505060206121e98682870161215c565b92505060406121fa86828701612067565b9150509250925092565b60006020828403121561221a57612219611ecf565b5b60006122288482850161215c565b91505092915050565b61223a81612046565b82525050565b60006020820190506122556000830184612231565b92915050565b600080fd5b600080fd5b7f4e487b7100000000000000000000000000000000000000000000000000000000600052604160045260246000fd5b61229d82611fda565b810181811067ffffffffffffffff821117156122bc576122bb612265565b5b80604052505050565b60006122cf611ec5565b90506122db8282612294565b919050565b600067ffffffffffffffff8211156122fb576122fa612265565b5b61230482611fda565b9050602081019050919050565b82818337600083830152505050565b600061233361232e846122e0565b6122c5565b90508281526020810184848401111561234f5761234e612260565b5b61235a848285612311565b509392505050565b600082601f8301126123775761237661225b565b5b8135612387848260208601612320565b91505092915050565b6000806000606084860312156123a9576123a8611ecf565b5b60006123b78682870161215c565b93505060206123c886828701612067565b925050604084013567ffffffffffffffff8111156123e9576123e8611ed4565b5b6123f586828701612362565b9150509250925092565b61240881611f5e565b811461241357600080fd5b50565b600081359050612425816123ff565b92915050565b6000806040838503121561244257612441611ecf565b5b60006124508582860161215c565b925050602061246185828601612416565b9150509250929050565b600067ffffffffffffffff82111561248657612485612265565b5b61248f82611fda565b9050602081019050919050565b60006124af6124aa8461246b565b6122c5565b9050828152602081018484840111156124cb576124ca612260565b5b6124d6848285612311565b509392505050565b600082601f8301126124f3576124f261225b565b5b813561250384826020860161249c565b91505092915050565b6000806000806080858703121561252657612525611ecf565b5b60006125348782880161215c565b94505060206125458782880161215c565b935050604061255687828801612067565b925050606085013567ffffffffffffffff81111561257757612576611ed4565b5b612583878288016124de565b91505092959194509250565b60006040820190506125a46000830185612231565b6125b16020830184612231565b9392505050565b600080604083850312156125cf576125ce611ecf565b5b60006125dd8582860161215c565b92505060206125ee8582860161215c565b9150509250929050565b7f4e487b7100000000000000000000000000000000000000000000000000000000600052602260045260246000fd5b6000600282049050600182168061263f57607f821691505b602082108103612652576126516125f8565b5b50919050565b7f4f6e6c7920666163746f72792063616e2063616c6c20746869732066756e637460008201527f696f6e0000000000000000000000000000000000000000000000000000000000602082015250565b60006126b4602383611f9f565b91506126bf82612658565b604082019050919050565b600060208201905081810360008301526126e3816126a7565b9050919050565b7f50726f66696c6520646f6573206e6f7420657869737400000000000000000000600082015250565b6000612720601683611f9f565b915061272b826126ea565b602082019050919050565b6000602082019050818103600083015261274f81612713565b9050919050565b600060608201905061276b60008301866120db565b6127786020830185612231565b61278560408301846120db565b949350505050565b7f50726f66696c652077697468207468697320494420616c72656164792065786960008201527f7374730000000000000000000000000000000000000000000000000000000000602082015250565b60006127e9602383611f9f565b91506127f48261278d565b604082019050919050565b60006020820190508181036000830152612818816127dc565b9050919050565b600081905092915050565b600061283582611f94565b61283f818561281f565b935061284f818560208601611fb0565b80840191505092915050565b6000612867828561282a565b9150612873828461282a565b91508190509392505050565b60008190508160005260206000209050919050565b60006020601f8301049050919050565b600082821b905092915050565b6000600883026128e17fffffffffffffffffffffffffffffffffffffffffffffffffffffffffffffffff826128a4565b6128eb86836128a4565b95508019841693508086168417925050509392505050565b6000819050919050565b600061292861292361291e84612046565b612903565b612046565b9050919050565b6000819050919050565b6129428361290d565b61295661294e8261292f565b8484546128b1565b825550505050565b600090565b61296b61295e565b612976818484612939565b505050565b5b8181101561299a5761298f600082612963565b60018101905061297c565b5050565b601f8211156129df576129b08161287f565b6129b984612894565b810160208510156129c8578190505b6129dc6129d485612894565b83018261297b565b50505b505050565b600082821c905092915050565b6000612a02600019846008026129e4565b1980831691505092915050565b6000612a1b83836129f1565b9150826002028217905092915050565b612a3482611f94565b67ffffffffffffffff811115612a4d57612a4c612265565b5b612a578254612627565b612a6282828561299e565b600060209050601f831160018114612a955760008415612a83578287015190505b612a8d8582612a0f565b865550612af5565b601f198416612aa38661287f565b60005b82811015612acb57848901518255600182019150602085019450602081019050612aa6565b86831015612ae85784890151612ae4601f8916826129f1565b8355505b6001600288020188555050505b505050505050565b600081519050919050565b600082825260208201905092915050565b6000612b2482612afd565b612b2e8185612b08565b9350612b3e818560208601611fb0565b612b4781611fda565b840191505092915050565b6000608082019050612b6760008301876120db565b612b7460208301866120db565b612b816040830185612231565b8181036060830152612b938184612b19565b905095945050505050565b600081519050612bad81611f05565b92915050565b600060208284031215612bc957612bc8611ecf565b5b6000612bd784828501612b9e565b91505092915050565b6000604082019050612bf560008301856120db565b612c026020830184612231565b9392505050565b7f4e487b7100000000000000000000000000000000000000000000000000000000600052601260045260246000fdfea2646970667358221220087c366f3c83dd39a03ca1fd070661263bb5e5304e6b9d725260497f156d8f3a64736f6c63430008180033",
  "linkReferences": {},
  "deployedLinkReferences": {}
}