{
  "_format": "hh-sol-artifact-1",
  "contractName": "Factory",
  "sourceName": "contracts/Factory.sol",
  "abi": [
    {
      "inputs": [],
      "stateMutability": "nonpayable",
      "type": "constructor"
    },
    {
      "inputs": [],
      "name": "EnforcedPause",
      "type": "error"
    },
    {
      "inputs": [],
      "name": "ExpectedPause",
      "type": "error"
    },
    {
      "inputs": [
        {
          "internalType": "address",
          "name": "owner",
          "type": "address"
        }
      ],
      "name": "OwnableInvalidOwner",
      "type": "error"
    },
    {
      "inputs": [
        {
          "internalType": "address",
          "name": "account",
          "type": "address"
        }
      ],
      "name": "OwnableUnauthorizedAccount",
      "type": "error"
    },
    {
      "anonymous": false,
      "inputs": [
        {
          "indexed": true,
          "internalType": "uint256",
          "name": "tweetId",
          "type": "uint256"
        },
        {
          "indexed": false,
          "internalType": "uint256",
          "name": "likes",
          "type": "uint256"
        },
        {
          "indexed": false,
          "internalType": "uint256",
          "name": "retweets",
          "type": "uint256"
        },
        {
          "indexed": false,
          "internalType": "uint256",
          "name": "comments",
          "type": "uint256"
        }
      ],
      "name": "EngagementUpdated",
      "type": "event"
    },
    {
      "anonymous": false,
      "inputs": [
        {
          "indexed": true,
          "internalType": "address",
          "name": "previousOwner",
          "type": "address"
        },
        {
          "indexed": true,
          "internalType": "address",
          "name": "newOwner",
          "type": "address"
        }
      ],
      "name": "OwnershipTransferred",
      "type": "event"
    },
    {
      "anonymous": false,
      "inputs": [
        {
          "indexed": false,
          "internalType": "address",
          "name": "account",
          "type": "address"
        }
      ],
      "name": "Paused",
      "type": "event"
    },
    {
      "anonymous": false,
      "inputs": [
        {
          "indexed": true,
          "internalType": "address",
          "name": "owner",
          "type": "address"
        },
        {
          "indexed": true,
          "internalType": "uint256",
          "name": "profileId",
          "type": "uint256"
        }
      ],
      "name": "ProfileCreated",
      "type": "event"
    },
    {
      "anonymous": false,
      "inputs": [
        {
          "indexed": true,
          "internalType": "address",
          "name": "owner",
          "type": "address"
        },
        {
          "indexed": true,
          "internalType": "uint256",
          "name": "tweetId",
          "type": "uint256"
        },
        {
          "indexed": true,
          "internalType": "uint256",
          "name": "profileId",
          "type": "uint256"
        }
      ],
      "name": "TweetCreated",
      "type": "event"
    },
    {
      "anonymous": false,
      "inputs": [
        {
          "indexed": false,
          "internalType": "address",
          "name": "account",
          "type": "address"
        }
      ],
      "name": "Unpaused",
      "type": "event"
    },
    {
      "inputs": [
        {
          "internalType": "uint256",
          "name": "profileId",
          "type": "uint256"
        }
      ],
      "name": "calculateAndUpdateScore",
      "outputs": [],
      "stateMutability": "nonpayable",
      "type": "function"
    },
    {
      "inputs": [],
      "name": "commentWeight",
      "outputs": [
        {
          "internalType": "uint256",
          "name": "",
          "type": "uint256"
        }
      ],
      "stateMutability": "view",
      "type": "function"
    },
    {
      "inputs": [
        {
          "internalType": "string",
          "name": "tokenURI",
          "type": "string"
        }
      ],
      "name": "createProfile",
      "outputs": [
        {
          "internalType": "uint256",
          "name": "",
          "type": "uint256"
        }
      ],
      "stateMutability": "nonpayable",
      "type": "function"
    },
    {
      "inputs": [
        {
          "internalType": "uint256",
          "name": "profileId",
          "type": "uint256"
        },
        {
          "internalType": "string",
          "name": "tokenURI",
          "type": "string"
        }
      ],
      "name": "createTweet",
      "outputs": [
        {
          "internalType": "uint256",
          "name": "",
          "type": "uint256"
        }
      ],
      "stateMutability": "nonpayable",
      "type": "function"
    },
    {
      "inputs": [
        {
          "internalType": "address",
          "name": "_profileNFTAddress",
          "type": "address"
        },
        {
          "internalType": "address",
          "name": "_tweetNFTAddress",
          "type": "address"
        }
      ],
      "name": "initializeNFTContracts",
      "outputs": [],
      "stateMutability": "nonpayable",
      "type": "function"
    },
    {
      "inputs": [],
      "name": "likeWeight",
      "outputs": [
        {
          "internalType": "uint256",
          "name": "",
          "type": "uint256"
        }
      ],
      "stateMutability": "view",
      "type": "function"
    },
    {
      "inputs": [],
      "name": "owner",
      "outputs": [
        {
          "internalType": "address",
          "name": "",
          "type": "address"
        }
      ],
      "stateMutability": "view",
      "type": "function"
    },
    {
      "inputs": [],
      "name": "pause",
      "outputs": [],
      "stateMutability": "nonpayable",
      "type": "function"
    },
    {
      "inputs": [],
      "name": "paused",
      "outputs": [
        {
          "internalType": "bool",
          "name": "",
          "type": "bool"
        }
      ],
      "stateMutability": "view",
      "type": "function"
    },
    {
      "inputs": [],
      "name": "profileNFT",
      "outputs": [
        {
          "internalType": "contract ProfileNFT",
          "name": "",
          "type": "address"
        }
      ],
      "stateMutability": "view",
      "type": "function"
    },
    {
      "inputs": [],
      "name": "renounceOwnership",
      "outputs": [],
      "stateMutability": "nonpayable",
      "type": "function"
    },
    {
      "inputs": [],
      "name": "retweetWeight",
      "outputs": [
        {
          "internalType": "uint256",
          "name": "",
          "type": "uint256"
        }
      ],
      "stateMutability": "view",
      "type": "function"
    },
    {
      "inputs": [
        {
          "internalType": "address",
          "name": "newOwner",
          "type": "address"
        }
      ],
      "name": "transferOwnership",
      "outputs": [],
      "stateMutability": "nonpayable",
      "type": "function"
    },
    {
      "inputs": [],
      "name": "tweetNFT",
      "outputs": [
        {
          "internalType": "contract TweetNFT",
          "name": "",
          "type": "address"
        }
      ],
      "stateMutability": "view",
      "type": "function"
    },
    {
      "inputs": [],
      "name": "unpause",
      "outputs": [],
      "stateMutability": "nonpayable",
      "type": "function"
    },
    {
      "inputs": [
        {
          "internalType": "uint256",
          "name": "tweetId",
          "type": "uint256"
        },
        {
          "internalType": "uint256",
          "name": "likes",
          "type": "uint256"
        },
        {
          "internalType": "uint256",
          "name": "retweets",
          "type": "uint256"
        },
        {
          "internalType": "uint256",
          "name": "comments",
          "type": "uint256"
        }
      ],
      "name": "updateEngagement",
      "outputs": [],
      "stateMutability": "nonpayable",
      "type": "function"
    },
    {
      "inputs": [
        {
          "internalType": "uint256",
          "name": "_likeWeight",
          "type": "uint256"
        },
        {
          "internalType": "uint256",
          "name": "_retweetWeight",
          "type": "uint256"
        },
        {
          "internalType": "uint256",
          "name": "_commentWeight",
          "type": "uint256"
        }
      ],
      "name": "updateWeights",
      "outputs": [],
      "stateMutability": "nonpayable",
      "type": "function"
    }
  ],
  "bytecode": "0x60806040526001600555600160065560016007553480156200002057600080fd5b5033600073ffffffffffffffffffffffffffffffffffffffff168173ffffffffffffffffffffffffffffffffffffffff1603620000975760006040517f1e4fbdf70000000000000000000000000000000000000000000000000000000081526004016200008e9190620001d2565b60405180910390fd5b620000a881620000c960201b60201c565b5060008060146101000a81548160ff021916908315150217905550620001ef565b60008060009054906101000a900473ffffffffffffffffffffffffffffffffffffffff169050816000806101000a81548173ffffffffffffffffffffffffffffffffffffffff021916908373ffffffffffffffffffffffffffffffffffffffff1602179055508173ffffffffffffffffffffffffffffffffffffffff168173ffffffffffffffffffffffffffffffffffffffff167f8be0079c531659141344cd1fd0a4f28419497f9722a3daafe3b4186f6b6457e060405160405180910390a35050565b600073ffffffffffffffffffffffffffffffffffffffff82169050919050565b6000620001ba826200018d565b9050919050565b620001cc81620001ad565b82525050565b6000602082019050620001e96000830184620001c1565b92915050565b61155c80620001ff6000396000f3fe608060405234801561001057600080fd5b506004361061010b5760003560e01c80637cc82f20116100a2578063949675e911610071578063949675e91461025a57806394c9825d14610278578063a83b140214610294578063eaf61842146102b2578063f2fde38b146102d05761010b565b80637cc82f20146101e65780638456cb59146102165780638da5cb5b146102205780638ed0eabd1461023e5761010b565b80635802594f116100de5780635802594f146101845780635c975abb146101a257806369d5334d146101c0578063715018a6146101dc5761010b565b80632b27ecc614610110578063334c3f0e1461012e578063396cd0f61461015e5780633f4ba83a1461017a575b600080fd5b6101186102ec565b6040516101259190610d17565b60405180910390f35b61014860048036038101906101439190610e8c565b6102f2565b6040516101559190610d17565b60405180910390f35b61017860048036038101906101739190610f01565b61040c565b005b6101826104a9565b005b61018c6104bb565b6040516101999190610fad565b60405180910390f35b6101aa6104e1565b6040516101b79190610fe3565b60405180910390f35b6101da60048036038101906101d5919061103c565b6104f7565b005b6101e4610585565b005b61020060048036038101906101fb919061107c565b610599565b60405161020d9190610d17565b60405180910390f35b61021e6107c1565b005b6102286107d3565b60405161023591906110e7565b60405180910390f35b61025860048036038101906102539190611102565b6107fc565b005b61026261081e565b60405161026f9190611176565b60405180910390f35b610292600480360381019061028d9190611191565b610844565b005b61029c6109d3565b6040516102a99190610d17565b60405180910390f35b6102ba6109d9565b6040516102c79190610d17565b60405180910390f35b6102ea60048036038101906102e591906111f8565b6109df565b005b60075481565b60006102fc610a65565b600180600082825461030e9190611254565b9250508190555060006001549050600360009054906101000a900473ffffffffffffffffffffffffffffffffffffffff1673ffffffffffffffffffffffffffffffffffffffff166374b8f40e3383866040518463ffffffff1660e01b815260040161037b93929190611307565b6020604051808303816000875af115801561039a573d6000803e3d6000fd5b505050506040513d601f19601f820116820180604052508101906103be919061135a565b50803373ffffffffffffffffffffffffffffffffffffffff167fcb939889322fed25104a5d8945bde5162563412a1fd718946cdcacb03088ea0860405160405180910390a380915050919050565b610414610a65565b6000600360009054906101000a900473ffffffffffffffffffffffffffffffffffffffff1673ffffffffffffffffffffffffffffffffffffffff166309218e7b83836040518363ffffffff1660e01b8152600401610473929190611387565b600060405180830381600087803b15801561048d57600080fd5b505af11580156104a1573d6000803e3d6000fd5b505050505050565b6104b1610aa6565b6104b9610b2d565b565b600460009054906101000a900473ffffffffffffffffffffffffffffffffffffffff1681565b60008060149054906101000a900460ff16905090565b6104ff610aa6565b81600360006101000a81548173ffffffffffffffffffffffffffffffffffffffff021916908373ffffffffffffffffffffffffffffffffffffffff16021790555080600460006101000a81548173ffffffffffffffffffffffffffffffffffffffff021916908373ffffffffffffffffffffffffffffffffffffffff1602179055505050565b61058d610aa6565b6105976000610b8f565b565b60006105a3610a65565b3373ffffffffffffffffffffffffffffffffffffffff16600360009054906101000a900473ffffffffffffffffffffffffffffffffffffffff1673ffffffffffffffffffffffffffffffffffffffff16636352211e856040518263ffffffff1660e01b81526004016106159190610d17565b602060405180830381865afa158015610632573d6000803e3d6000fd5b505050506040513d601f19601f8201168201806040525081019061065691906113c5565b73ffffffffffffffffffffffffffffffffffffffff16146106ac576040517f08c379a00000000000000000000000000000000000000000000000000000000081526004016106a39061143e565b60405180910390fd5b6001600260008282546106bf9190611254565b9250508190555060006002549050600460009054906101000a900473ffffffffffffffffffffffffffffffffffffffff1673ffffffffffffffffffffffffffffffffffffffff166365616102338387876040518563ffffffff1660e01b815260040161072e949392919061145e565b6020604051808303816000875af115801561074d573d6000803e3d6000fd5b505050506040513d601f19601f82011682018060405250810190610771919061135a565b5083813373ffffffffffffffffffffffffffffffffffffffff167f1f52c8ec6bc8075995c7707f9bedf317ff81749ca7a214e777c962d763d3cd4160405160405180910390a48091505092915050565b6107c9610aa6565b6107d1610c53565b565b60008060009054906101000a900473ffffffffffffffffffffffffffffffffffffffff16905090565b610804610aa6565b826005819055508160068190555080600781905550505050565b600360009054906101000a900473ffffffffffffffffffffffffffffffffffffffff1681565b61084c610aa6565b610854610a65565b600460009054906101000a900473ffffffffffffffffffffffffffffffffffffffff1673ffffffffffffffffffffffffffffffffffffffff166394c9825d858585856040518563ffffffff1660e01b81526004016108b594939291906114aa565b600060405180830381600087803b1580156108cf57600080fd5b505af11580156108e3573d6000803e3d6000fd5b505050506000600460009054906101000a900473ffffffffffffffffffffffffffffffffffffffff1673ffffffffffffffffffffffffffffffffffffffff1663728533bd866040518263ffffffff1660e01b81526004016109449190610d17565b602060405180830381865afa158015610961573d6000803e3d6000fd5b505050506040513d601f19601f82011682018060405250810190610985919061135a565b90506109908161040c565b847f63bd409a0ca0450137d1b574e1e74a5a18cc8934d8f718c1603619b971ce67378585856040516109c4939291906114ef565b60405180910390a25050505050565b60055481565b60065481565b6109e7610aa6565b600073ffffffffffffffffffffffffffffffffffffffff168173ffffffffffffffffffffffffffffffffffffffff1603610a595760006040517f1e4fbdf7000000000000000000000000000000000000000000000000000000008152600401610a5091906110e7565b60405180910390fd5b610a6281610b8f565b50565b610a6d6104e1565b15610aa4576040517fd93c066500000000000000000000000000000000000000000000000000000000815260040160405180910390fd5b565b610aae610cb6565b73ffffffffffffffffffffffffffffffffffffffff16610acc6107d3565b73ffffffffffffffffffffffffffffffffffffffff1614610b2b57610aef610cb6565b6040517f118cdaa7000000000000000000000000000000000000000000000000000000008152600401610b2291906110e7565b60405180910390fd5b565b610b35610cbe565b60008060146101000a81548160ff0219169083151502179055507f5db9ee0a495bf2e6ff9c91a7834c1ba4fdd244a5e8aa4e537bd38aeae4b073aa610b78610cb6565b604051610b8591906110e7565b60405180910390a1565b60008060009054906101000a900473ffffffffffffffffffffffffffffffffffffffff169050816000806101000a81548173ffffffffffffffffffffffffffffffffffffffff021916908373ffffffffffffffffffffffffffffffffffffffff1602179055508173ffffffffffffffffffffffffffffffffffffffff168173ffffffffffffffffffffffffffffffffffffffff167f8be0079c531659141344cd1fd0a4f28419497f9722a3daafe3b4186f6b6457e060405160405180910390a35050565b610c5b610a65565b6001600060146101000a81548160ff0219169083151502179055507f62e78cea01bee320cd4e420270b5ea74000d11b0c9f74754ebdbfc544b05a258610c9f610cb6565b604051610cac91906110e7565b60405180910390a1565b600033905090565b610cc66104e1565b610cfc576040517f8dfc202b00000000000000000000000000000000000000000000000000000000815260040160405180910390fd5b565b6000819050919050565b610d1181610cfe565b82525050565b6000602082019050610d2c6000830184610d08565b92915050565b6000604051905090565b600080fd5b600080fd5b600080fd5b600080fd5b6000601f19601f8301169050919050565b7f4e487b7100000000000000000000000000000000000000000000000000000000600052604160045260246000fd5b610d9982610d50565b810181811067ffffffffffffffff82111715610db857610db7610d61565b5b80604052505050565b6000610dcb610d32565b9050610dd78282610d90565b919050565b600067ffffffffffffffff821115610df757610df6610d61565b5b610e0082610d50565b9050602081019050919050565b82818337600083830152505050565b6000610e2f610e2a84610ddc565b610dc1565b905082815260208101848484011115610e4b57610e4a610d4b565b5b610e56848285610e0d565b509392505050565b600082601f830112610e7357610e72610d46565b5b8135610e83848260208601610e1c565b91505092915050565b600060208284031215610ea257610ea1610d3c565b5b600082013567ffffffffffffffff811115610ec057610ebf610d41565b5b610ecc84828501610e5e565b91505092915050565b610ede81610cfe565b8114610ee957600080fd5b50565b600081359050610efb81610ed5565b92915050565b600060208284031215610f1757610f16610d3c565b5b6000610f2584828501610eec565b91505092915050565b600073ffffffffffffffffffffffffffffffffffffffff82169050919050565b6000819050919050565b6000610f73610f6e610f6984610f2e565b610f4e565b610f2e565b9050919050565b6000610f8582610f58565b9050919050565b6000610f9782610f7a565b9050919050565b610fa781610f8c565b82525050565b6000602082019050610fc26000830184610f9e565b92915050565b60008115159050919050565b610fdd81610fc8565b82525050565b6000602082019050610ff86000830184610fd4565b92915050565b600061100982610f2e565b9050919050565b61101981610ffe565b811461102457600080fd5b50565b60008135905061103681611010565b92915050565b6000806040838503121561105357611052610d3c565b5b600061106185828601611027565b925050602061107285828601611027565b9150509250929050565b6000806040838503121561109357611092610d3c565b5b60006110a185828601610eec565b925050602083013567ffffffffffffffff8111156110c2576110c1610d41565b5b6110ce85828601610e5e565b9150509250929050565b6110e181610ffe565b82525050565b60006020820190506110fc60008301846110d8565b92915050565b60008060006060848603121561111b5761111a610d3c565b5b600061112986828701610eec565b935050602061113a86828701610eec565b925050604061114b86828701610eec565b9150509250925092565b600061116082610f7a565b9050919050565b61117081611155565b82525050565b600060208201905061118b6000830184611167565b92915050565b600080600080608085870312156111ab576111aa610d3c565b5b60006111b987828801610eec565b94505060206111ca87828801610eec565b93505060406111db87828801610eec565b92505060606111ec87828801610eec565b91505092959194509250565b60006020828403121561120e5761120d610d3c565b5b600061121c84828501611027565b91505092915050565b7f4e487b7100000000000000000000000000000000000000000000000000000000600052601160045260246000fd5b600061125f82610cfe565b915061126a83610cfe565b925082820190508082111561128257611281611225565b5b92915050565b600081519050919050565b600082825260208201905092915050565b60005b838110156112c25780820151818401526020810190506112a7565b60008484015250505050565b60006112d982611288565b6112e38185611293565b93506112f38185602086016112a4565b6112fc81610d50565b840191505092915050565b600060608201905061131c60008301866110d8565b6113296020830185610d08565b818103604083015261133b81846112ce565b9050949350505050565b60008151905061135481610ed5565b92915050565b6000602082840312156113705761136f610d3c565b5b600061137e84828501611345565b91505092915050565b600060408201905061139c6000830185610d08565b6113a96020830184610d08565b9392505050565b6000815190506113bf81611010565b92915050565b6000602082840312156113db576113da610d3c565b5b60006113e9848285016113b0565b91505092915050565b7f596f7520646f6e2774206f776e20746869732070726f66696c65000000000000600082015250565b6000611428601a83611293565b9150611433826113f2565b602082019050919050565b600060208201905081810360008301526114578161141b565b9050919050565b600060808201905061147360008301876110d8565b6114806020830186610d08565b61148d6040830185610d08565b818103606083015261149f81846112ce565b905095945050505050565b60006080820190506114bf6000830187610d08565b6114cc6020830186610d08565b6114d96040830185610d08565b6114e66060830184610d08565b95945050505050565b60006060820190506115046000830186610d08565b6115116020830185610d08565b61151e6040830184610d08565b94935050505056fea2646970667358221220c6ac8a7afdac60a52a42a0be7bf35538f7f0410e67ea9315cee52127426aaf2664736f6c63430008180033",
  "linkReferences": {},
  "deployedLinkReferences": {}
}