{
  "_format": "hh-sol-artifact-1",
  "contractName": "ProfileNFT",
  "sourceName": "contracts/ProfileNFT.sol",
  "abi": [
    {
      "inputs": [
        {
          "internalType": "address",
          "name": "_factoryAddress",
          "type": "address"
        }
      ],
      "stateMutability": "nonpayable",
      "type": "constructor"
    },
    {
      "inputs": [
        {
          "internalType": "address",
          "name": "sender",
          "type": "address"
        },
        {
          "internalType": "uint256",
          "name": "tokenId",
          "type": "uint256"
        },
        {
          "internalType": "address",
          "name": "owner",
          "type": "address"
        }
      ],
      "name": "ERC721IncorrectOwner",
      "type": "error"
    },
    {
      "inputs": [
        {
          "internalType": "address",
          "name": "operator",
          "type": "address"
        },
        {
          "internalType": "uint256",
          "name": "tokenId",
          "type": "uint256"
        }
      ],
      "name": "ERC721InsufficientApproval",
      "type": "error"
    },
    {
      "inputs": [
        {
          "internalType": "address",
          "name": "approver",
          "type": "address"
        }
      ],
      "name": "ERC721InvalidApprover",
      "type": "error"
    },
    {
      "inputs": [
        {
          "internalType": "address",
          "name": "operator",
          "type": "address"
        }
      ],
      "name": "ERC721InvalidOperator",
      "type": "error"
    },
    {
      "inputs": [
        {
          "internalType": "address",
          "name": "owner",
          "type": "address"
        }
      ],
      "name": "ERC721InvalidOwner",
      "type": "error"
    },
    {
      "inputs": [
        {
          "internalType": "address",
          "name": "receiver",
          "type": "address"
        }
      ],
      "name": "ERC721InvalidReceiver",
      "type": "error"
    },
    {
      "inputs": [
        {
          "internalType": "address",
          "name": "sender",
          "type": "address"
        }
      ],
      "name": "ERC721InvalidSender",
      "type": "error"
    },
    {
      "inputs": [
        {
          "internalType": "uint256",
          "name": "tokenId",
          "type": "uint256"
        }
      ],
      "name": "ERC721NonexistentToken",
      "type": "error"
    },
    {
      "inputs": [
        {
          "internalType": "address",
          "name": "owner",
          "type": "address"
        }
      ],
      "name": "OwnableInvalidOwner",
      "type": "error"
    },
    {
      "inputs": [
        {
          "internalType": "address",
          "name": "account",
          "type": "address"
        }
      ],
      "name": "OwnableUnauthorizedAccount",
      "type": "error"
    },
    {
      "anonymous": false,
      "inputs": [
        {
          "indexed": true,
          "internalType": "address",
          "name": "owner",
          "type": "address"
        },
        {
          "indexed": true,
          "internalType": "address",
          "name": "approved",
          "type": "address"
        },
        {
          "indexed": true,
          "internalType": "uint256",
          "name": "tokenId",
          "type": "uint256"
        }
      ],
      "name": "Approval",
      "type": "event"
    },
    {
      "anonymous": false,
      "inputs": [
        {
          "indexed": true,
          "internalType": "address",
          "name": "owner",
          "type": "address"
        },
        {
          "indexed": true,
          "internalType": "address",
          "name": "operator",
          "type": "address"
        },
        {
          "indexed": false,
          "internalType": "bool",
          "name": "approved",
          "type": "bool"
        }
      ],
      "name": "ApprovalForAll",
      "type": "event"
    },
    {
      "anonymous": false,
      "inputs": [
        {
          "indexed": false,
          "internalType": "uint256",
          "name": "_fromTokenId",
          "type": "uint256"
        },
        {
          "indexed": false,
          "internalType": "uint256",
          "name": "_toTokenId",
          "type": "uint256"
        }
      ],
      "name": "BatchMetadataUpdate",
      "type": "event"
    },
    {
      "anonymous": false,
      "inputs": [
        {
          "indexed": false,
          "internalType": "uint256",
          "name": "_tokenId",
          "type": "uint256"
        }
      ],
      "name": "MetadataUpdate",
      "type": "event"
    },
    {
      "anonymous": false,
      "inputs": [
        {
          "indexed": true,
          "internalType": "address",
          "name": "previousOwner",
          "type": "address"
        },
        {
          "indexed": true,
          "internalType": "address",
          "name": "newOwner",
          "type": "address"
        }
      ],
      "name": "OwnershipTransferred",
      "type": "event"
    },
    {
      "anonymous": false,
      "inputs": [
        {
          "indexed": true,
          "internalType": "uint256",
          "name": "profileId",
          "type": "uint256"
        },
        {
          "indexed": false,
          "internalType": "uint256",
          "name": "newScore",
          "type": "uint256"
        }
      ],
      "name": "ScoreUpdated",
      "type": "event"
    },
    {
      "anonymous": false,
      "inputs": [
        {
          "indexed": true,
          "internalType": "address",
          "name": "from",
          "type": "address"
        },
        {
          "indexed": true,
          "internalType": "address",
          "name": "to",
          "type": "address"
        },
        {
          "indexed": true,
          "internalType": "uint256",
          "name": "tokenId",
          "type": "uint256"
        }
      ],
      "name": "Transfer",
      "type": "event"
    },
    {
      "inputs": [
        {
          "internalType": "address",
          "name": "to",
          "type": "address"
        },
        {
          "internalType": "uint256",
          "name": "tokenId",
          "type": "uint256"
        }
      ],
      "name": "approve",
      "outputs": [],
      "stateMutability": "nonpayable",
      "type": "function"
    },
    {
      "inputs": [
        {
          "internalType": "address",
          "name": "owner",
          "type": "address"
        }
      ],
      "name": "balanceOf",
      "outputs": [
        {
          "internalType": "uint256",
          "name": "",
          "type": "uint256"
        }
      ],
      "stateMutability": "view",
      "type": "function"
    },
    {
      "inputs": [],
      "name": "factoryAddress",
      "outputs": [
        {
          "internalType": "address",
          "name": "",
          "type": "address"
        }
      ],
      "stateMutability": "view",
      "type": "function"
    },
    {
      "inputs": [
        {
          "internalType": "uint256",
          "name": "tokenId",
          "type": "uint256"
        }
      ],
      "name": "getApproved",
      "outputs": [
        {
          "internalType": "address",
          "name": "",
          "type": "address"
        }
      ],
      "stateMutability": "view",
      "type": "function"
    },
    {
      "inputs": [
        {
          "internalType": "uint256",
          "name": "profileId",
          "type": "uint256"
        }
      ],
      "name": "getProfileScore",
      "outputs": [
        {
          "internalType": "uint256",
          "name": "",
          "type": "uint256"
        }
      ],
      "stateMutability": "view",
      "type": "function"
    },
    {
      "inputs": [
        {
          "internalType": "address",
          "name": "owner",
          "type": "address"
        },
        {
          "internalType": "address",
          "name": "operator",
          "type": "address"
        }
      ],
      "name": "isApprovedForAll",
      "outputs": [
        {
          "internalType": "bool",
          "name": "",
          "type": "bool"
        }
      ],
      "stateMutability": "view",
      "type": "function"
    },
    {
      "inputs": [
        {
          "internalType": "address",
          "name": "to",
          "type": "address"
        },
        {
          "internalType": "uint256",
          "name": "profileId",
          "type": "uint256"
        },
        {
          "internalType": "string",
          "name": "tokenURI",
          "type": "string"
        }
      ],
      "name": "mintProfile",
      "outputs": [
        {
          "internalType": "uint256",
          "name": "",
          "type": "uint256"
        }
      ],
      "stateMutability": "nonpayable",
      "type": "function"
    },
    {
      "inputs": [],
      "name": "name",
      "outputs": [
        {
          "internalType": "string",
          "name": "",
          "type": "string"
        }
      ],
      "stateMutability": "view",
      "type": "function"
    },
    {
      "inputs": [],
      "name": "owner",
      "outputs": [
        {
          "internalType": "address",
          "name": "",
          "type": "address"
        }
      ],
      "stateMutability": "view",
      "type": "function"
    },
    {
      "inputs": [
        {
          "internalType": "uint256",
          "name": "tokenId",
          "type": "uint256"
        }
      ],
      "name": "ownerOf",
      "outputs": [
        {
          "internalType": "address",
          "name": "",
          "type": "address"
        }
      ],
      "stateMutability": "view",
      "type": "function"
    },
    {
      "inputs": [
        {
          "internalType": "uint256",
          "name": "",
          "type": "uint256"
        }
      ],
      "name": "profiles",
      "outputs": [
        {
          "internalType": "uint256",
          "name": "id",
          "type": "uint256"
        },
        {
          "internalType": "uint256",
          "name": "score",
          "type": "uint256"
        }
      ],
      "stateMutability": "view",
      "type": "function"
    },
    {
      "inputs": [],
      "name": "renounceOwnership",
      "outputs": [],
      "stateMutability": "nonpayable",
      "type": "function"
    },
    {
      "inputs": [
        {
          "internalType": "address",
          "name": "from",
          "type": "address"
        },
        {
          "internalType": "address",
          "name": "to",
          "type": "address"
        },
        {
          "internalType": "uint256",
          "name": "tokenId",
          "type": "uint256"
        }
      ],
      "name": "safeTransferFrom",
      "outputs": [],
      "stateMutability": "nonpayable",
      "type": "function"
    },
    {
      "inputs": [
        {
          "internalType": "address",
          "name": "from",
          "type": "address"
        },
        {
          "internalType": "address",
          "name": "to",
          "type": "address"
        },
        {
          "internalType": "uint256",
          "name": "tokenId",
          "type": "uint256"
        },
        {
          "internalType": "bytes",
          "name": "data",
          "type": "bytes"
        }
      ],
      "name": "safeTransferFrom",
      "outputs": [],
      "stateMutability": "nonpayable",
      "type": "function"
    },
    {
      "inputs": [
        {
          "internalType": "address",
          "name": "operator",
          "type": "address"
        },
        {
          "internalType": "bool",
          "name": "approved",
          "type": "bool"
        }
      ],
      "name": "setApprovalForAll",
      "outputs": [],
      "stateMutability": "nonpayable",
      "type": "function"
    },
    {
      "inputs": [
        {
          "internalType": "address",
          "name": "_factoryAddress",
          "type": "address"
        }
      ],
      "name": "setFactoryAddress",
      "outputs": [],
      "stateMutability": "nonpayable",
      "type": "function"
    },
    {
      "inputs": [
        {
          "internalType": "bytes4",
          "name": "interfaceId",
          "type": "bytes4"
        }
      ],
      "name": "supportsInterface",
      "outputs": [
        {
          "internalType": "bool",
          "name": "",
          "type": "bool"
        }
      ],
      "stateMutability": "view",
      "type": "function"
    },
    {
      "inputs": [],
      "name": "symbol",
      "outputs": [
        {
          "internalType": "string",
          "name": "",
          "type": "string"
        }
      ],
      "stateMutability": "view",
      "type": "function"
    },
    {
      "inputs": [
        {
          "internalType": "uint256",
          "name": "tokenId",
          "type": "uint256"
        }
      ],
      "name": "tokenURI",
      "outputs": [
        {
          "internalType": "string",
          "name": "",
          "type": "string"
        }
      ],
      "stateMutability": "view",
      "type": "function"
    },
    {
      "inputs": [
        {
          "internalType": "address",
          "name": "from",
          "type": "address"
        },
        {
          "internalType": "address",
          "name": "to",
          "type": "address"
        },
        {
          "internalType": "uint256",
          "name": "tokenId",
          "type": "uint256"
        }
      ],
      "name": "transferFrom",
      "outputs": [],
      "stateMutability": "nonpayable",
      "type": "function"
    },
    {
      "inputs": [
        {
          "internalType": "address",
          "name": "newOwner",
          "type": "address"
        }
      ],
      "name": "transferOwnership",
      "outputs": [],
      "stateMutability": "nonpayable",
      "type": "function"
    },
    {
      "inputs": [
        {
          "internalType": "uint256",
          "name": "profileId",
          "type": "uint256"
        },
        {
          "internalType": "uint256",
          "name": "newScore",
          "type": "uint256"
        }
      ],
      "name": "updateScore",
      "outputs": [],
      "stateMutability": "nonpayable",
      "type": "function"
    }
  ],
  "bytecode": "0x60806040523480156200001157600080fd5b50604051620031ff380380620031ff8339818101604052810190620000379190620002c9565b336040518060400160405280600d81526020017f536f6369616c50726f66696c65000000000000000000000000000000000000008152506040518060400160405280600581526020017f5350524f460000000000000000000000000000000000000000000000000000008152508160009081620000b5919062000575565b508060019081620000c7919062000575565b505050600073ffffffffffffffffffffffffffffffffffffffff168173ffffffffffffffffffffffffffffffffffffffff16036200013f5760006040517f1e4fbdf70000000000000000000000000000000000000000000000000000000081526004016200013691906200066d565b60405180910390fd5b62000150816200019960201b60201c565b5080600960006101000a81548173ffffffffffffffffffffffffffffffffffffffff021916908373ffffffffffffffffffffffffffffffffffffffff160217905550506200068a565b6000600760009054906101000a900473ffffffffffffffffffffffffffffffffffffffff16905081600760006101000a81548173ffffffffffffffffffffffffffffffffffffffff021916908373ffffffffffffffffffffffffffffffffffffffff1602179055508173ffffffffffffffffffffffffffffffffffffffff168173ffffffffffffffffffffffffffffffffffffffff167f8be0079c531659141344cd1fd0a4f28419497f9722a3daafe3b4186f6b6457e060405160405180910390a35050565b600080fd5b600073ffffffffffffffffffffffffffffffffffffffff82169050919050565b6000620002918262000264565b9050919050565b620002a38162000284565b8114620002af57600080fd5b50565b600081519050620002c38162000298565b92915050565b600060208284031215620002e257620002e16200025f565b5b6000620002f284828501620002b2565b91505092915050565b600081519050919050565b7f4e487b7100000000000000000000000000000000000000000000000000000000600052604160045260246000fd5b7f4e487b7100000000000000000000000000000000000000000000000000000000600052602260045260246000fd5b600060028204905060018216806200037d57607f821691505b60208210810362000393576200039262000335565b5b50919050565b60008190508160005260206000209050919050565b60006020601f8301049050919050565b600082821b905092915050565b600060088302620003fd7fffffffffffffffffffffffffffffffffffffffffffffffffffffffffffffffff82620003be565b620004098683620003be565b95508019841693508086168417925050509392505050565b6000819050919050565b6000819050919050565b600062000456620004506200044a8462000421565b6200042b565b62000421565b9050919050565b6000819050919050565b620004728362000435565b6200048a62000481826200045d565b848454620003cb565b825550505050565b600090565b620004a162000492565b620004ae81848462000467565b505050565b5b81811015620004d657620004ca60008262000497565b600181019050620004b4565b5050565b601f8211156200052557620004ef8162000399565b620004fa84620003ae565b810160208510156200050a578190505b620005226200051985620003ae565b830182620004b3565b50505b505050565b600082821c905092915050565b60006200054a600019846008026200052a565b1980831691505092915050565b600062000565838362000537565b9150826002028217905092915050565b6200058082620002fb565b67ffffffffffffffff8111156200059c576200059b62000306565b5b620005a8825462000364565b620005b5828285620004da565b600060209050601f831160018114620005ed5760008415620005d8578287015190505b620005e4858262000557565b86555062000654565b601f198416620005fd8662000399565b60005b82811015620006275784890151825560018201915060208501945060208101905062000600565b8683101562000647578489015162000643601f89168262000537565b8355505b6001600288020188555050505b505050505050565b620006678162000284565b82525050565b60006020820190506200068460008301846200065c565b92915050565b612b65806200069a6000396000f3fe608060405234801561001057600080fd5b50600436106101425760003560e01c806383c17c55116100b8578063a22cb4651161007c578063a22cb46514610375578063b88d4fde14610391578063c36fe3d6146103ad578063c87b56dd146103de578063e985e9c51461040e578063f2fde38b1461043e57610142565b806383c17c55146102cf5780638da5cb5b146102eb5780638ec209241461030957806395d89b4114610339578063966dae0e1461035757610142565b806323b872dd1161010a57806323b872dd146101fd57806342842e0e146102195780636352211e1461023557806370a0823114610265578063715018a61461029557806374b8f40e1461029f57610142565b806301ffc9a71461014757806306fdde0314610177578063081812fc1461019557806309218e7b146101c5578063095ea7b3146101e1575b600080fd5b610161600480360381019061015c9190611eba565b61045a565b60405161016e9190611f02565b60405180910390f35b61017f6104bb565b60405161018c9190611fad565b60405180910390f35b6101af60048036038101906101aa9190612005565b61054d565b6040516101bc9190612073565b60405180910390f35b6101df60048036038101906101da919061208e565b610569565b005b6101fb60048036038101906101f691906120fa565b6106c7565b005b6102176004803603810190610212919061213a565b6106dd565b005b610233600480360381019061022e919061213a565b6107df565b005b61024f600480360381019061024a9190612005565b6107ff565b60405161025c9190612073565b60405180910390f35b61027f600480360381019061027a919061218d565b610811565b60405161028c91906121c9565b60405180910390f35b61029d6108cb565b005b6102b960048036038101906102b49190612319565b6108df565b6040516102c691906121c9565b60405180910390f35b6102e960048036038101906102e4919061218d565b6109cf565b005b6102f3610a1b565b6040516103009190612073565b60405180910390f35b610323600480360381019061031e9190612005565b610a45565b60405161033091906121c9565b60405180910390f35b610341610adb565b60405161034e9190611fad565b60405180910390f35b61035f610b6d565b60405161036c9190612073565b60405180910390f35b61038f600480360381019061038a91906123b4565b610b93565b005b6103ab60048036038101906103a69190612495565b610ba9565b005b6103c760048036038101906103c29190612005565b610bce565b6040516103d5929190612518565b60405180910390f35b6103f860048036038101906103f39190612005565b610bf2565b6040516104059190611fad565b60405180910390f35b61042860048036038101906104239190612541565b610d05565b6040516104359190611f02565b60405180910390f35b6104586004803603810190610453919061218d565b610d99565b005b6000634906490660e01b7bffffffffffffffffffffffffffffffffffffffffffffffffffffffff1916827bffffffffffffffffffffffffffffffffffffffffffffffffffffffff191614806104b457506104b382610e1f565b5b9050919050565b6060600080546104ca906125b0565b80601f01602080910402602001604051908101604052809291908181526020018280546104f6906125b0565b80156105435780601f1061051857610100808354040283529160200191610543565b820191906000526020600020905b81548152906001019060200180831161052657829003601f168201915b5050505050905090565b600061055882610f01565b5061056282610f89565b9050919050565b600960009054906101000a900473ffffffffffffffffffffffffffffffffffffffff1673ffffffffffffffffffffffffffffffffffffffff163373ffffffffffffffffffffffffffffffffffffffff16146105f9576040517f08c379a00000000000000000000000000000000000000000000000000000000081526004016105f090612653565b60405180910390fd5b600073ffffffffffffffffffffffffffffffffffffffff1661061a83610fc6565b73ffffffffffffffffffffffffffffffffffffffff1603610670576040517f08c379a0000000000000000000000000000000000000000000000000000000008152600401610667906126bf565b60405180910390fd5b806008600084815260200190815260200160002060010181905550817fefd5a7f141ae02cd40bc84ffe6ebb58811cb61dfd017746842a005c78bfed852826040516106bb91906121c9565b60405180910390a25050565b6106d982826106d4611003565b61100b565b5050565b600073ffffffffffffffffffffffffffffffffffffffff168273ffffffffffffffffffffffffffffffffffffffff160361074f5760006040517f64a0ae920000000000000000000000000000000000000000000000000000000081526004016107469190612073565b60405180910390fd5b6000610763838361075e611003565b61101d565b90508373ffffffffffffffffffffffffffffffffffffffff168173ffffffffffffffffffffffffffffffffffffffff16146107d9578382826040517f64283d7b0000000000000000000000000000000000000000000000000000000081526004016107d0939291906126df565b60405180910390fd5b50505050565b6107fa83838360405180602001604052806000815250610ba9565b505050565b600061080a82610f01565b9050919050565b60008073ffffffffffffffffffffffffffffffffffffffff168273ffffffffffffffffffffffffffffffffffffffff16036108845760006040517f89c62b6400000000000000000000000000000000000000000000000000000000815260040161087b9190612073565b60405180910390fd5b600360008373ffffffffffffffffffffffffffffffffffffffff1673ffffffffffffffffffffffffffffffffffffffff168152602001908152602001600020549050919050565b6108d3611237565b6108dd60006112be565b565b6000600960009054906101000a900473ffffffffffffffffffffffffffffffffffffffff1673ffffffffffffffffffffffffffffffffffffffff163373ffffffffffffffffffffffffffffffffffffffff1614610971576040517f08c379a000000000000000000000000000000000000000000000000000000000815260040161096890612653565b60405180910390fd5b61097b8484611384565b610985838361147d565b604051806040016040528084815260200160008152506008600085815260200190815260200160002060008201518160000155602082015181600101559050508290509392505050565b6109d7611237565b80600960006101000a81548173ffffffffffffffffffffffffffffffffffffffff021916908373ffffffffffffffffffffffffffffffffffffffff16021790555050565b6000600760009054906101000a900473ffffffffffffffffffffffffffffffffffffffff16905090565b60008073ffffffffffffffffffffffffffffffffffffffff16610a6783610fc6565b73ffffffffffffffffffffffffffffffffffffffff1603610abd576040517f08c379a0000000000000000000000000000000000000000000000000000000008152600401610ab4906126bf565b60405180910390fd5b60086000838152602001908152602001600020600101549050919050565b606060018054610aea906125b0565b80601f0160208091040260200160405190810160405280929190818152602001828054610b16906125b0565b8015610b635780601f10610b3857610100808354040283529160200191610b63565b820191906000526020600020905b815481529060010190602001808311610b4657829003601f168201915b5050505050905090565b600960009054906101000a900473ffffffffffffffffffffffffffffffffffffffff1681565b610ba5610b9e611003565b83836114d9565b5050565b610bb48484846106dd565b610bc8610bbf611003565b85858585611648565b50505050565b60086020528060005260406000206000915090508060000154908060010154905082565b6060610bfd82610f01565b506000600660008481526020019081526020016000208054610c1e906125b0565b80601f0160208091040260200160405190810160405280929190818152602001828054610c4a906125b0565b8015610c975780601f10610c6c57610100808354040283529160200191610c97565b820191906000526020600020905b815481529060010190602001808311610c7a57829003601f168201915b505050505090506000610ca86117f9565b90506000815103610cbd578192505050610d00565b600082511115610cf2578082604051602001610cda929190612752565b60405160208183030381529060405292505050610d00565b610cfb84611810565b925050505b919050565b6000600560008473ffffffffffffffffffffffffffffffffffffffff1673ffffffffffffffffffffffffffffffffffffffff16815260200190815260200160002060008373ffffffffffffffffffffffffffffffffffffffff1673ffffffffffffffffffffffffffffffffffffffff16815260200190815260200160002060009054906101000a900460ff16905092915050565b610da1611237565b600073ffffffffffffffffffffffffffffffffffffffff168173ffffffffffffffffffffffffffffffffffffffff1603610e135760006040517f1e4fbdf7000000000000000000000000000000000000000000000000000000008152600401610e0a9190612073565b60405180910390fd5b610e1c816112be565b50565b60007f80ac58cd000000000000000000000000000000000000000000000000000000007bffffffffffffffffffffffffffffffffffffffffffffffffffffffff1916827bffffffffffffffffffffffffffffffffffffffffffffffffffffffff19161480610eea57507f5b5e139f000000000000000000000000000000000000000000000000000000007bffffffffffffffffffffffffffffffffffffffffffffffffffffffff1916827bffffffffffffffffffffffffffffffffffffffffffffffffffffffff1916145b80610efa5750610ef982611879565b5b9050919050565b600080610f0d83610fc6565b9050600073ffffffffffffffffffffffffffffffffffffffff168173ffffffffffffffffffffffffffffffffffffffff1603610f8057826040517f7e273289000000000000000000000000000000000000000000000000000000008152600401610f7791906121c9565b60405180910390fd5b80915050919050565b60006004600083815260200190815260200160002060009054906101000a900473ffffffffffffffffffffffffffffffffffffffff169050919050565b60006002600083815260200190815260200160002060009054906101000a900473ffffffffffffffffffffffffffffffffffffffff169050919050565b600033905090565b61101883838360016118e3565b505050565b60008061102984610fc6565b9050600073ffffffffffffffffffffffffffffffffffffffff168373ffffffffffffffffffffffffffffffffffffffff161461106b5761106a818486611aa8565b5b600073ffffffffffffffffffffffffffffffffffffffff168173ffffffffffffffffffffffffffffffffffffffff16146110fc576110ad6000856000806118e3565b6001600360008373ffffffffffffffffffffffffffffffffffffffff1673ffffffffffffffffffffffffffffffffffffffff168152602001908152602001600020600082825403925050819055505b600073ffffffffffffffffffffffffffffffffffffffff168573ffffffffffffffffffffffffffffffffffffffff161461117f576001600360008773ffffffffffffffffffffffffffffffffffffffff1673ffffffffffffffffffffffffffffffffffffffff168152602001908152602001600020600082825401925050819055505b846002600086815260200190815260200160002060006101000a81548173ffffffffffffffffffffffffffffffffffffffff021916908373ffffffffffffffffffffffffffffffffffffffff160217905550838573ffffffffffffffffffffffffffffffffffffffff168273ffffffffffffffffffffffffffffffffffffffff167fddf252ad1be2c89b69c2b068fc378daa952ba7f163c4a11628f55a4df523b3ef60405160405180910390a4809150509392505050565b61123f611003565b73ffffffffffffffffffffffffffffffffffffffff1661125d610a1b565b73ffffffffffffffffffffffffffffffffffffffff16146112bc57611280611003565b6040517f118cdaa70000000000000000000000000000000000000000000000000000000081526004016112b39190612073565b60405180910390fd5b565b6000600760009054906101000a900473ffffffffffffffffffffffffffffffffffffffff16905081600760006101000a81548173ffffffffffffffffffffffffffffffffffffffff021916908373ffffffffffffffffffffffffffffffffffffffff1602179055508173ffffffffffffffffffffffffffffffffffffffff168173ffffffffffffffffffffffffffffffffffffffff167f8be0079c531659141344cd1fd0a4f28419497f9722a3daafe3b4186f6b6457e060405160405180910390a35050565b600073ffffffffffffffffffffffffffffffffffffffff168273ffffffffffffffffffffffffffffffffffffffff16036113f65760006040517f64a0ae920000000000000000000000000000000000000000000000000000000081526004016113ed9190612073565b60405180910390fd5b60006114048383600061101d565b9050600073ffffffffffffffffffffffffffffffffffffffff168173ffffffffffffffffffffffffffffffffffffffff16146114785760006040517f73c6ac6e00000000000000000000000000000000000000000000000000000000815260040161146f9190612073565b60405180910390fd5b505050565b8060066000848152602001908152602001600020908161149d9190612922565b507ff8e1a15aba9398e019f0b49df1a4fde98ee17ae345cb5f6b5e2c27f5033e8ce7826040516114cd91906121c9565b60405180910390a15050565b600073ffffffffffffffffffffffffffffffffffffffff168273ffffffffffffffffffffffffffffffffffffffff160361154a57816040517f5b08ba180000000000000000000000000000000000000000000000000000000081526004016115419190612073565b60405180910390fd5b80600560008573ffffffffffffffffffffffffffffffffffffffff1673ffffffffffffffffffffffffffffffffffffffff16815260200190815260200160002060008473ffffffffffffffffffffffffffffffffffffffff1673ffffffffffffffffffffffffffffffffffffffff16815260200190815260200160002060006101000a81548160ff0219169083151502179055508173ffffffffffffffffffffffffffffffffffffffff168373ffffffffffffffffffffffffffffffffffffffff167f17307eab39ab6107e8899845ad3d59bd9653f200f220920489ca2b5937696c318360405161163b9190611f02565b60405180910390a3505050565b60008373ffffffffffffffffffffffffffffffffffffffff163b11156117f2578273ffffffffffffffffffffffffffffffffffffffff1663150b7a02868685856040518563ffffffff1660e01b81526004016116a79493929190612a49565b6020604051808303816000875af19250505080156116e357506040513d601f19601f820116820180604052508101906116e09190612aaa565b60015b611767573d8060008114611713576040519150601f19603f3d011682016040523d82523d6000602084013e611718565b606091505b50600081510361175f57836040517f64a0ae920000000000000000000000000000000000000000000000000000000081526004016117569190612073565b60405180910390fd5b805181602001fd5b63150b7a0260e01b7bffffffffffffffffffffffffffffffffffffffffffffffffffffffff1916817bffffffffffffffffffffffffffffffffffffffffffffffffffffffff1916146117f057836040517f64a0ae920000000000000000000000000000000000000000000000000000000081526004016117e79190612073565b60405180910390fd5b505b5050505050565b606060405180602001604052806000815250905090565b606061181b82610f01565b5060006118266117f9565b905060008151116118465760405180602001604052806000815250611871565b8061185084611b6c565b604051602001611861929190612752565b6040516020818303038152906040525b915050919050565b60007f01ffc9a7000000000000000000000000000000000000000000000000000000007bffffffffffffffffffffffffffffffffffffffffffffffffffffffff1916827bffffffffffffffffffffffffffffffffffffffffffffffffffffffff1916149050919050565b808061191c5750600073ffffffffffffffffffffffffffffffffffffffff168273ffffffffffffffffffffffffffffffffffffffff1614155b15611a5057600061192c84610f01565b9050600073ffffffffffffffffffffffffffffffffffffffff168373ffffffffffffffffffffffffffffffffffffffff161415801561199757508273ffffffffffffffffffffffffffffffffffffffff168173ffffffffffffffffffffffffffffffffffffffff1614155b80156119aa57506119a88184610d05565b155b156119ec57826040517fa9fbf51f0000000000000000000000000000000000000000000000000000000081526004016119e39190612073565b60405180910390fd5b8115611a4e57838573ffffffffffffffffffffffffffffffffffffffff168273ffffffffffffffffffffffffffffffffffffffff167f8c5be1e5ebec7d5bd14f71427d1e84f3dd0314c0f7b2291e5b200ac8c7c3b92560405160405180910390a45b505b836004600085815260200190815260200160002060006101000a81548173ffffffffffffffffffffffffffffffffffffffff021916908373ffffffffffffffffffffffffffffffffffffffff16021790555050505050565b611ab3838383611c3a565b611b6757600073ffffffffffffffffffffffffffffffffffffffff168373ffffffffffffffffffffffffffffffffffffffff1603611b2857806040517f7e273289000000000000000000000000000000000000000000000000000000008152600401611b1f91906121c9565b60405180910390fd5b81816040517f177e802f000000000000000000000000000000000000000000000000000000008152600401611b5e929190612ad7565b60405180910390fd5b505050565b606060006001611b7b84611cfb565b01905060008167ffffffffffffffff811115611b9a57611b996121ee565b5b6040519080825280601f01601f191660200182016040528015611bcc5781602001600182028036833780820191505090505b509050600082602001820190505b600115611c2f578080600190039150507f3031323334353637383961626364656600000000000000000000000000000000600a86061a8153600a8581611c2357611c22612b00565b5b04945060008503611bda575b819350505050919050565b60008073ffffffffffffffffffffffffffffffffffffffff168373ffffffffffffffffffffffffffffffffffffffff1614158015611cf257508273ffffffffffffffffffffffffffffffffffffffff168473ffffffffffffffffffffffffffffffffffffffff161480611cb35750611cb28484610d05565b5b80611cf157508273ffffffffffffffffffffffffffffffffffffffff16611cd983610f89565b73ffffffffffffffffffffffffffffffffffffffff16145b5b90509392505050565b600080600090507a184f03e93ff9f4daa797ed6e38ed64bf6a1f0100000000000000008310611d59577a184f03e93ff9f4daa797ed6e38ed64bf6a1f0100000000000000008381611d4f57611d4e612b00565b5b0492506040810190505b6d04ee2d6d415b85acef81000000008310611d96576d04ee2d6d415b85acef81000000008381611d8c57611d8b612b00565b5b0492506020810190505b662386f26fc100008310611dc557662386f26fc100008381611dbb57611dba612b00565b5b0492506010810190505b6305f5e1008310611dee576305f5e1008381611de457611de3612b00565b5b0492506008810190505b6127108310611e13576127108381611e0957611e08612b00565b5b0492506004810190505b60648310611e365760648381611e2c57611e2b612b00565b5b0492506002810190505b600a8310611e45576001810190505b80915050919050565b6000604051905090565b600080fd5b600080fd5b60007fffffffff0000000000000000000000000000000000000000000000000000000082169050919050565b611e9781611e62565b8114611ea257600080fd5b50565b600081359050611eb481611e8e565b92915050565b600060208284031215611ed057611ecf611e58565b5b6000611ede84828501611ea5565b91505092915050565b60008115159050919050565b611efc81611ee7565b82525050565b6000602082019050611f176000830184611ef3565b92915050565b600081519050919050565b600082825260208201905092915050565b60005b83811015611f57578082015181840152602081019050611f3c565b60008484015250505050565b6000601f19601f8301169050919050565b6000611f7f82611f1d565b611f898185611f28565b9350611f99818560208601611f39565b611fa281611f63565b840191505092915050565b60006020820190508181036000830152611fc78184611f74565b905092915050565b6000819050919050565b611fe281611fcf565b8114611fed57600080fd5b50565b600081359050611fff81611fd9565b92915050565b60006020828403121561201b5761201a611e58565b5b600061202984828501611ff0565b91505092915050565b600073ffffffffffffffffffffffffffffffffffffffff82169050919050565b600061205d82612032565b9050919050565b61206d81612052565b82525050565b60006020820190506120886000830184612064565b92915050565b600080604083850312156120a5576120a4611e58565b5b60006120b385828601611ff0565b92505060206120c485828601611ff0565b9150509250929050565b6120d781612052565b81146120e257600080fd5b50565b6000813590506120f4816120ce565b92915050565b6000806040838503121561211157612110611e58565b5b600061211f858286016120e5565b925050602061213085828601611ff0565b9150509250929050565b60008060006060848603121561215357612152611e58565b5b6000612161868287016120e5565b9350506020612172868287016120e5565b925050604061218386828701611ff0565b9150509250925092565b6000602082840312156121a3576121a2611e58565b5b60006121b1848285016120e5565b91505092915050565b6121c381611fcf565b82525050565b60006020820190506121de60008301846121ba565b92915050565b600080fd5b600080fd5b7f4e487b7100000000000000000000000000000000000000000000000000000000600052604160045260246000fd5b61222682611f63565b810181811067ffffffffffffffff82111715612245576122446121ee565b5b80604052505050565b6000612258611e4e565b9050612264828261221d565b919050565b600067ffffffffffffffff821115612284576122836121ee565b5b61228d82611f63565b9050602081019050919050565b82818337600083830152505050565b60006122bc6122b784612269565b61224e565b9050828152602081018484840111156122d8576122d76121e9565b5b6122e384828561229a565b509392505050565b600082601f830112612300576122ff6121e4565b5b81356123108482602086016122a9565b91505092915050565b60008060006060848603121561233257612331611e58565b5b6000612340868287016120e5565b935050602061235186828701611ff0565b925050604084013567ffffffffffffffff81111561237257612371611e5d565b5b61237e868287016122eb565b9150509250925092565b61239181611ee7565b811461239c57600080fd5b50565b6000813590506123ae81612388565b92915050565b600080604083850312156123cb576123ca611e58565b5b60006123d9858286016120e5565b92505060206123ea8582860161239f565b9150509250929050565b600067ffffffffffffffff82111561240f5761240e6121ee565b5b61241882611f63565b9050602081019050919050565b6000612438612433846123f4565b61224e565b905082815260208101848484011115612454576124536121e9565b5b61245f84828561229a565b509392505050565b600082601f83011261247c5761247b6121e4565b5b813561248c848260208601612425565b91505092915050565b600080600080608085870312156124af576124ae611e58565b5b60006124bd878288016120e5565b94505060206124ce878288016120e5565b93505060406124df87828801611ff0565b925050606085013567ffffffffffffffff811115612500576124ff611e5d565b5b61250c87828801612467565b91505092959194509250565b600060408201905061252d60008301856121ba565b61253a60208301846121ba565b9392505050565b6000806040838503121561255857612557611e58565b5b6000612566858286016120e5565b9250506020612577858286016120e5565b9150509250929050565b7f4e487b7100000000000000000000000000000000000000000000000000000000600052602260045260246000fd5b600060028204905060018216806125c857607f821691505b6020821081036125db576125da612581565b5b50919050565b7f4f6e6c7920666163746f72792063616e2063616c6c20746869732066756e637460008201527f696f6e0000000000000000000000000000000000000000000000000000000000602082015250565b600061263d602383611f28565b9150612648826125e1565b604082019050919050565b6000602082019050818103600083015261266c81612630565b9050919050565b7f50726f66696c6520646f6573206e6f7420657869737400000000000000000000600082015250565b60006126a9601683611f28565b91506126b482612673565b602082019050919050565b600060208201905081810360008301526126d88161269c565b9050919050565b60006060820190506126f46000830186612064565b61270160208301856121ba565b61270e6040830184612064565b949350505050565b600081905092915050565b600061272c82611f1d565b6127368185612716565b9350612746818560208601611f39565b80840191505092915050565b600061275e8285612721565b915061276a8284612721565b91508190509392505050565b60008190508160005260206000209050919050565b60006020601f8301049050919050565b600082821b905092915050565b6000600883026127d87fffffffffffffffffffffffffffffffffffffffffffffffffffffffffffffffff8261279b565b6127e2868361279b565b95508019841693508086168417925050509392505050565b6000819050919050565b600061281f61281a61281584611fcf565b6127fa565b611fcf565b9050919050565b6000819050919050565b61283983612804565b61284d61284582612826565b8484546127a8565b825550505050565b600090565b612862612855565b61286d818484612830565b505050565b5b818110156128915761288660008261285a565b600181019050612873565b5050565b601f8211156128d6576128a781612776565b6128b08461278b565b810160208510156128bf578190505b6128d36128cb8561278b565b830182612872565b50505b505050565b600082821c905092915050565b60006128f9600019846008026128db565b1980831691505092915050565b600061291283836128e8565b9150826002028217905092915050565b61292b82611f1d565b67ffffffffffffffff811115612944576129436121ee565b5b61294e82546125b0565b612959828285612895565b600060209050601f83116001811461298c576000841561297a578287015190505b6129848582612906565b8655506129ec565b601f19841661299a86612776565b60005b828110156129c25784890151825560018201915060208501945060208101905061299d565b868310156129df57848901516129db601f8916826128e8565b8355505b6001600288020188555050505b505050505050565b600081519050919050565b600082825260208201905092915050565b6000612a1b826129f4565b612a2581856129ff565b9350612a35818560208601611f39565b612a3e81611f63565b840191505092915050565b6000608082019050612a5e6000830187612064565b612a6b6020830186612064565b612a7860408301856121ba565b8181036060830152612a8a8184612a10565b905095945050505050565b600081519050612aa481611e8e565b92915050565b600060208284031215612ac057612abf611e58565b5b6000612ace84828501612a95565b91505092915050565b6000604082019050612aec6000830185612064565b612af960208301846121ba565b9392505050565b7f4e487b7100000000000000000000000000000000000000000000000000000000600052601260045260246000fdfea26469706673582212205d4b1d16abf9a92f114eb65cdc66c0d1c5cf4f99dba33ad662e6742f3790fe9164736f6c63430008180033",
  "linkReferences": {},
  "deployedLinkReferences": {}
}