{
  "_format": "hh-sol-artifact-1",
  "contractName": "Factory",
  "sourceName": "contracts/Factory.sol",
  "abi": [
    {
      "inputs": [],
      "stateMutability": "nonpayable",
      "type": "constructor"
    },
    {
      "inputs": [],
      "name": "EnforcedPause",
      "type": "error"
    },
    {
      "inputs": [],
      "name": "ExpectedPause",
      "type": "error"
    },
    {
      "inputs": [
        {
          "internalType": "address",
          "name": "owner",
          "type": "address"
        }
      ],
      "name": "OwnableInvalidOwner",
      "type": "error"
    },
    {
      "inputs": [
        {
          "internalType": "address",
          "name": "account",
          "type": "address"
        }
      ],
      "name": "OwnableUnauthorizedAccount",
      "type": "error"
    },
    {
      "anonymous": false,
      "inputs": [
        {
          "indexed": true,
          "internalType": "uint256",
          "name": "tweetId",
          "type": "uint256"
        },
        {
          "indexed": false,
          "internalType": "uint256",
          "name": "likes",
          "type": "uint256"
        },
        {
          "indexed": false,
          "internalType": "uint256",
          "name": "retweets",
          "type": "uint256"
        },
        {
          "indexed": false,
          "internalType": "uint256",
          "name": "comments",
          "type": "uint256"
        }
      ],
      "name": "EngagementUpdated",
      "type": "event"
    },
    {
      "anonymous": false,
      "inputs": [
        {
          "indexed": true,
          "internalType": "address",
          "name": "previousOwner",
          "type": "address"
        },
        {
          "indexed": true,
          "internalType": "address",
          "name": "newOwner",
          "type": "address"
        }
      ],
      "name": "OwnershipTransferred",
      "type": "event"
    },
    {
      "anonymous": false,
      "inputs": [
        {
          "indexed": false,
          "internalType": "address",
          "name": "account",
          "type": "address"
        }
      ],
      "name": "Paused",
      "type": "event"
    },
    {
      "anonymous": false,
      "inputs": [
        {
          "indexed": true,
          "internalType": "address",
          "name": "owner",
          "type": "address"
        },
        {
          "indexed": true,
          "internalType": "uint256",
          "name": "profileId",
          "type": "uint256"
        }
      ],
      "name": "ProfileCreated",
      "type": "event"
    },
    {
      "anonymous": false,
      "inputs": [
        {
          "indexed": true,
          "internalType": "address",
          "name": "owner",
          "type": "address"
        },
        {
          "indexed": true,
          "internalType": "uint256",
          "name": "tweetId",
          "type": "uint256"
        },
        {
          "indexed": true,
          "internalType": "uint256",
          "name": "profileId",
          "type": "uint256"
        }
      ],
      "name": "TweetCreated",
      "type": "event"
    },
    {
      "anonymous": false,
      "inputs": [
        {
          "indexed": false,
          "internalType": "address",
          "name": "account",
          "type": "address"
        }
      ],
      "name": "Unpaused",
      "type": "event"
    },
    {
      "inputs": [
        {
          "internalType": "uint256",
          "name": "profileId",
          "type": "uint256"
        },
        {
          "internalType": "uint256",
          "name": "tweetId",
          "type": "uint256"
        }
      ],
      "name": "calculateAndUpdateScore",
      "outputs": [],
      "stateMutability": "nonpayable",
      "type": "function"
    },
    {
      "inputs": [],
      "name": "commentWeight",
      "outputs": [
        {
          "internalType": "uint256",
          "name": "",
          "type": "uint256"
        }
      ],
      "stateMutability": "view",
      "type": "function"
    },
    {
      "inputs": [
        {
          "internalType": "string",
          "name": "tokenURI",
          "type": "string"
        }
      ],
      "name": "createProfile",
      "outputs": [
        {
          "internalType": "uint256",
          "name": "",
          "type": "uint256"
        }
      ],
      "stateMutability": "nonpayable",
      "type": "function"
    },
    {
      "inputs": [
        {
          "internalType": "uint256",
          "name": "profileId",
          "type": "uint256"
        },
        {
          "internalType": "string",
          "name": "tokenURI",
          "type": "string"
        }
      ],
      "name": "createTweet",
      "outputs": [
        {
          "internalType": "uint256",
          "name": "",
          "type": "uint256"
        }
      ],
      "stateMutability": "nonpayable",
      "type": "function"
    },
    {
      "inputs": [
        {
          "internalType": "address",
          "name": "_profileNFTAddress",
          "type": "address"
        },
        {
          "internalType": "address",
          "name": "_tweetNFTAddress",
          "type": "address"
        }
      ],
      "name": "initializeNFTContracts",
      "outputs": [],
      "stateMutability": "nonpayable",
      "type": "function"
    },
    {
      "inputs": [],
      "name": "likeWeight",
      "outputs": [
        {
          "internalType": "uint256",
          "name": "",
          "type": "uint256"
        }
      ],
      "stateMutability": "view",
      "type": "function"
    },
    {
      "inputs": [],
      "name": "owner",
      "outputs": [
        {
          "internalType": "address",
          "name": "",
          "type": "address"
        }
      ],
      "stateMutability": "view",
      "type": "function"
    },
    {
      "inputs": [],
      "name": "pause",
      "outputs": [],
      "stateMutability": "nonpayable",
      "type": "function"
    },
    {
      "inputs": [],
      "name": "paused",
      "outputs": [
        {
          "internalType": "bool",
          "name": "",
          "type": "bool"
        }
      ],
      "stateMutability": "view",
      "type": "function"
    },
    {
      "inputs": [],
      "name": "profileNFT",
      "outputs": [
        {
          "internalType": "contract ProfileNFT",
          "name": "",
          "type": "address"
        }
      ],
      "stateMutability": "view",
      "type": "function"
    },
    {
      "inputs": [],
      "name": "renounceOwnership",
      "outputs": [],
      "stateMutability": "nonpayable",
      "type": "function"
    },
    {
      "inputs": [],
      "name": "retweetWeight",
      "outputs": [
        {
          "internalType": "uint256",
          "name": "",
          "type": "uint256"
        }
      ],
      "stateMutability": "view",
      "type": "function"
    },
    {
      "inputs": [
        {
          "internalType": "address",
          "name": "newOwner",
          "type": "address"
        }
      ],
      "name": "transferOwnership",
      "outputs": [],
      "stateMutability": "nonpayable",
      "type": "function"
    },
    {
      "inputs": [],
      "name": "tweetNFT",
      "outputs": [
        {
          "internalType": "contract TweetNFT",
          "name": "",
          "type": "address"
        }
      ],
      "stateMutability": "view",
      "type": "function"
    },
    {
      "inputs": [],
      "name": "unpause",
      "outputs": [],
      "stateMutability": "nonpayable",
      "type": "function"
    },
    {
      "inputs": [
        {
          "internalType": "uint256",
          "name": "tweetId",
          "type": "uint256"
        },
        {
          "internalType": "uint256",
          "name": "likes",
          "type": "uint256"
        },
        {
          "internalType": "uint256",
          "name": "retweets",
          "type": "uint256"
        },
        {
          "internalType": "uint256",
          "name": "comments",
          "type": "uint256"
        }
      ],
      "name": "updateEngagement",
      "outputs": [],
      "stateMutability": "nonpayable",
      "type": "function"
    },
    {
      "inputs": [
        {
          "internalType": "uint256",
          "name": "_likeWeight",
          "type": "uint256"
        },
        {
          "internalType": "uint256",
          "name": "_retweetWeight",
          "type": "uint256"
        },
        {
          "internalType": "uint256",
          "name": "_commentWeight",
          "type": "uint256"
        }
      ],
      "name": "updateWeights",
      "outputs": [],
      "stateMutability": "nonpayable",
      "type": "function"
    }
  ],
  "bytecode": "0x60806040526001600555600160065560016007553480156200002057600080fd5b5033600073ffffffffffffffffffffffffffffffffffffffff168173ffffffffffffffffffffffffffffffffffffffff1603620000975760006040517f1e4fbdf70000000000000000000000000000000000000000000000000000000081526004016200008e9190620001d2565b60405180910390fd5b620000a881620000c960201b60201c565b5060008060146101000a81548160ff021916908315150217905550620001ef565b60008060009054906101000a900473ffffffffffffffffffffffffffffffffffffffff169050816000806101000a81548173ffffffffffffffffffffffffffffffffffffffff021916908373ffffffffffffffffffffffffffffffffffffffff1602179055508173ffffffffffffffffffffffffffffffffffffffff168173ffffffffffffffffffffffffffffffffffffffff167f8be0079c531659141344cd1fd0a4f28419497f9722a3daafe3b4186f6b6457e060405160405180910390a35050565b600073ffffffffffffffffffffffffffffffffffffffff82169050919050565b6000620001ba826200018d565b9050919050565b620001cc81620001ad565b82525050565b6000602082019050620001e96000830184620001c1565b92915050565b6116fa80620001ff6000396000f3fe608060405234801561001057600080fd5b506004361061010b5760003560e01c80637cc82f20116100a2578063949675e911610071578063949675e91461025a57806394c9825d14610278578063a83b140214610294578063eaf61842146102b2578063f2fde38b146102d05761010b565b80637cc82f20146101e65780638456cb59146102165780638da5cb5b146102205780638ed0eabd1461023e5761010b565b80635802594f116100de5780635802594f146101845780635c975abb146101a257806369d5334d146101c0578063715018a6146101dc5761010b565b8063025a8036146101105780632b27ecc61461012c578063334c3f0e1461014a5780633f4ba83a1461017a575b600080fd5b61012a60048036038101906101259190610e3e565b6102ec565b005b61013461047e565b6040516101419190610e8d565b60405180910390f35b610164600480360381019061015f9190610fee565b610484565b6040516101719190610e8d565b60405180910390f35b61018261059e565b005b61018c6105b0565b60405161019991906110b6565b60405180910390f35b6101aa6105d6565b6040516101b791906110ec565b60405180910390f35b6101da60048036038101906101d59190611145565b6105ec565b005b6101e461067a565b005b61020060048036038101906101fb9190611185565b61068e565b60405161020d9190610e8d565b60405180910390f35b61021e6108b6565b005b6102286108c8565b60405161023591906111f0565b60405180910390f35b6102586004803603810190610253919061120b565b6108f1565b005b610262610913565b60405161026f919061127f565b60405180910390f35b610292600480360381019061028d919061129a565b610939565b005b61029c610ac9565b6040516102a99190610e8d565b60405180910390f35b6102ba610acf565b6040516102c79190610e8d565b60405180910390f35b6102ea60048036038101906102e59190611301565b610ad5565b005b6102f4610b5b565b600080806000600460009054906101000a900473ffffffffffffffffffffffffffffffffffffffff1673ffffffffffffffffffffffffffffffffffffffff16631f493fd4866040518263ffffffff1660e01b81526004016103559190610e8d565b606060405180830381865afa158015610372573d6000803e3d6000fd5b505050506040513d601f19601f820116820180604052508101906103969190611343565b925092509250600754816103aa91906113c5565b600654836103b891906113c5565b600554856103c691906113c5565b6103d09190611407565b6103da9190611407565b846103e59190611407565b9350600360009054906101000a900473ffffffffffffffffffffffffffffffffffffffff1673ffffffffffffffffffffffffffffffffffffffff166309218e7b87866040518363ffffffff1660e01b815260040161044492919061143b565b600060405180830381600087803b15801561045e57600080fd5b505af1158015610472573d6000803e3d6000fd5b50505050505050505050565b60075481565b600061048e610b5b565b60018060008282546104a09190611407565b9250508190555060006001549050600360009054906101000a900473ffffffffffffffffffffffffffffffffffffffff1673ffffffffffffffffffffffffffffffffffffffff166374b8f40e3383866040518463ffffffff1660e01b815260040161050d939291906114e3565b6020604051808303816000875af115801561052c573d6000803e3d6000fd5b505050506040513d601f19601f820116820180604052508101906105509190611521565b50803373ffffffffffffffffffffffffffffffffffffffff167fcb939889322fed25104a5d8945bde5162563412a1fd718946cdcacb03088ea0860405160405180910390a380915050919050565b6105a6610b9c565b6105ae610c23565b565b600460009054906101000a900473ffffffffffffffffffffffffffffffffffffffff1681565b60008060149054906101000a900460ff16905090565b6105f4610b9c565b81600360006101000a81548173ffffffffffffffffffffffffffffffffffffffff021916908373ffffffffffffffffffffffffffffffffffffffff16021790555080600460006101000a81548173ffffffffffffffffffffffffffffffffffffffff021916908373ffffffffffffffffffffffffffffffffffffffff1602179055505050565b610682610b9c565b61068c6000610c85565b565b6000610698610b5b565b3373ffffffffffffffffffffffffffffffffffffffff16600360009054906101000a900473ffffffffffffffffffffffffffffffffffffffff1673ffffffffffffffffffffffffffffffffffffffff16636352211e856040518263ffffffff1660e01b815260040161070a9190610e8d565b602060405180830381865afa158015610727573d6000803e3d6000fd5b505050506040513d601f19601f8201168201806040525081019061074b9190611563565b73ffffffffffffffffffffffffffffffffffffffff16146107a1576040517f08c379a0000000000000000000000000000000000000000000000000000000008152600401610798906115dc565b60405180910390fd5b6001600260008282546107b49190611407565b9250508190555060006002549050600460009054906101000a900473ffffffffffffffffffffffffffffffffffffffff1673ffffffffffffffffffffffffffffffffffffffff166365616102338387876040518563ffffffff1660e01b815260040161082394939291906115fc565b6020604051808303816000875af1158015610842573d6000803e3d6000fd5b505050506040513d601f19601f820116820180604052508101906108669190611521565b5083813373ffffffffffffffffffffffffffffffffffffffff167f1f52c8ec6bc8075995c7707f9bedf317ff81749ca7a214e777c962d763d3cd4160405160405180910390a48091505092915050565b6108be610b9c565b6108c6610d49565b565b60008060009054906101000a900473ffffffffffffffffffffffffffffffffffffffff16905090565b6108f9610b9c565b826005819055508160068190555080600781905550505050565b600360009054906101000a900473ffffffffffffffffffffffffffffffffffffffff1681565b610941610b9c565b610949610b5b565b600460009054906101000a900473ffffffffffffffffffffffffffffffffffffffff1673ffffffffffffffffffffffffffffffffffffffff166394c9825d858585856040518563ffffffff1660e01b81526004016109aa9493929190611648565b600060405180830381600087803b1580156109c457600080fd5b505af11580156109d8573d6000803e3d6000fd5b505050506000600460009054906101000a900473ffffffffffffffffffffffffffffffffffffffff1673ffffffffffffffffffffffffffffffffffffffff1663728533bd866040518263ffffffff1660e01b8152600401610a399190610e8d565b602060405180830381865afa158015610a56573d6000803e3d6000fd5b505050506040513d601f19601f82011682018060405250810190610a7a9190611521565b9050610a8681866102ec565b847f63bd409a0ca0450137d1b574e1e74a5a18cc8934d8f718c1603619b971ce6737858585604051610aba9392919061168d565b60405180910390a25050505050565b60055481565b60065481565b610add610b9c565b600073ffffffffffffffffffffffffffffffffffffffff168173ffffffffffffffffffffffffffffffffffffffff1603610b4f5760006040517f1e4fbdf7000000000000000000000000000000000000000000000000000000008152600401610b4691906111f0565b60405180910390fd5b610b5881610c85565b50565b610b636105d6565b15610b9a576040517fd93c066500000000000000000000000000000000000000000000000000000000815260040160405180910390fd5b565b610ba4610dac565b73ffffffffffffffffffffffffffffffffffffffff16610bc26108c8565b73ffffffffffffffffffffffffffffffffffffffff1614610c2157610be5610dac565b6040517f118cdaa7000000000000000000000000000000000000000000000000000000008152600401610c1891906111f0565b60405180910390fd5b565b610c2b610db4565b60008060146101000a81548160ff0219169083151502179055507f5db9ee0a495bf2e6ff9c91a7834c1ba4fdd244a5e8aa4e537bd38aeae4b073aa610c6e610dac565b604051610c7b91906111f0565b60405180910390a1565b60008060009054906101000a900473ffffffffffffffffffffffffffffffffffffffff169050816000806101000a81548173ffffffffffffffffffffffffffffffffffffffff021916908373ffffffffffffffffffffffffffffffffffffffff1602179055508173ffffffffffffffffffffffffffffffffffffffff168173ffffffffffffffffffffffffffffffffffffffff167f8be0079c531659141344cd1fd0a4f28419497f9722a3daafe3b4186f6b6457e060405160405180910390a35050565b610d51610b5b565b6001600060146101000a81548160ff0219169083151502179055507f62e78cea01bee320cd4e420270b5ea74000d11b0c9f74754ebdbfc544b05a258610d95610dac565b604051610da291906111f0565b60405180910390a1565b600033905090565b610dbc6105d6565b610df2576040517f8dfc202b00000000000000000000000000000000000000000000000000000000815260040160405180910390fd5b565b6000604051905090565b600080fd5b600080fd5b6000819050919050565b610e1b81610e08565b8114610e2657600080fd5b50565b600081359050610e3881610e12565b92915050565b60008060408385031215610e5557610e54610dfe565b5b6000610e6385828601610e29565b9250506020610e7485828601610e29565b9150509250929050565b610e8781610e08565b82525050565b6000602082019050610ea26000830184610e7e565b92915050565b600080fd5b600080fd5b6000601f19601f8301169050919050565b7f4e487b7100000000000000000000000000000000000000000000000000000000600052604160045260246000fd5b610efb82610eb2565b810181811067ffffffffffffffff82111715610f1a57610f19610ec3565b5b80604052505050565b6000610f2d610df4565b9050610f398282610ef2565b919050565b600067ffffffffffffffff821115610f5957610f58610ec3565b5b610f6282610eb2565b9050602081019050919050565b82818337600083830152505050565b6000610f91610f8c84610f3e565b610f23565b905082815260208101848484011115610fad57610fac610ead565b5b610fb8848285610f6f565b509392505050565b600082601f830112610fd557610fd4610ea8565b5b8135610fe5848260208601610f7e565b91505092915050565b60006020828403121561100457611003610dfe565b5b600082013567ffffffffffffffff81111561102257611021610e03565b5b61102e84828501610fc0565b91505092915050565b600073ffffffffffffffffffffffffffffffffffffffff82169050919050565b6000819050919050565b600061107c61107761107284611037565b611057565b611037565b9050919050565b600061108e82611061565b9050919050565b60006110a082611083565b9050919050565b6110b081611095565b82525050565b60006020820190506110cb60008301846110a7565b92915050565b60008115159050919050565b6110e6816110d1565b82525050565b600060208201905061110160008301846110dd565b92915050565b600061111282611037565b9050919050565b61112281611107565b811461112d57600080fd5b50565b60008135905061113f81611119565b92915050565b6000806040838503121561115c5761115b610dfe565b5b600061116a85828601611130565b925050602061117b85828601611130565b9150509250929050565b6000806040838503121561119c5761119b610dfe565b5b60006111aa85828601610e29565b925050602083013567ffffffffffffffff8111156111cb576111ca610e03565b5b6111d785828601610fc0565b9150509250929050565b6111ea81611107565b82525050565b600060208201905061120560008301846111e1565b92915050565b60008060006060848603121561122457611223610dfe565b5b600061123286828701610e29565b935050602061124386828701610e29565b925050604061125486828701610e29565b9150509250925092565b600061126982611083565b9050919050565b6112798161125e565b82525050565b60006020820190506112946000830184611270565b92915050565b600080600080608085870312156112b4576112b3610dfe565b5b60006112c287828801610e29565b94505060206112d387828801610e29565b93505060406112e487828801610e29565b92505060606112f587828801610e29565b91505092959194509250565b60006020828403121561131757611316610dfe565b5b600061132584828501611130565b91505092915050565b60008151905061133d81610e12565b92915050565b60008060006060848603121561135c5761135b610dfe565b5b600061136a8682870161132e565b935050602061137b8682870161132e565b925050604061138c8682870161132e565b9150509250925092565b7f4e487b7100000000000000000000000000000000000000000000000000000000600052601160045260246000fd5b60006113d082610e08565b91506113db83610e08565b92508282026113e981610e08565b91508282048414831517611400576113ff611396565b5b5092915050565b600061141282610e08565b915061141d83610e08565b925082820190508082111561143557611434611396565b5b92915050565b60006040820190506114506000830185610e7e565b61145d6020830184610e7e565b9392505050565b600081519050919050565b600082825260208201905092915050565b60005b8381101561149e578082015181840152602081019050611483565b60008484015250505050565b60006114b582611464565b6114bf818561146f565b93506114cf818560208601611480565b6114d881610eb2565b840191505092915050565b60006060820190506114f860008301866111e1565b6115056020830185610e7e565b818103604083015261151781846114aa565b9050949350505050565b60006020828403121561153757611536610dfe565b5b60006115458482850161132e565b91505092915050565b60008151905061155d81611119565b92915050565b60006020828403121561157957611578610dfe565b5b60006115878482850161154e565b91505092915050565b7f596f7520646f6e2774206f776e20746869732070726f66696c65000000000000600082015250565b60006115c6601a8361146f565b91506115d182611590565b602082019050919050565b600060208201905081810360008301526115f5816115b9565b9050919050565b600060808201905061161160008301876111e1565b61161e6020830186610e7e565b61162b6040830185610e7e565b818103606083015261163d81846114aa565b905095945050505050565b600060808201905061165d6000830187610e7e565b61166a6020830186610e7e565b6116776040830185610e7e565b6116846060830184610e7e565b95945050505050565b60006060820190506116a26000830186610e7e565b6116af6020830185610e7e565b6116bc6040830184610e7e565b94935050505056fea264697066735822122022c11ba04c68aa20feaf5e070ed8d2542a7b320ebb483cb9849f78ba198cfe2564736f6c63430008180033",
  "linkReferences": {},
  "deployedLinkReferences": {}
}