{
  "_format": "hh-sol-artifact-1",
  "contractName": "TweetNFT",
  "sourceName": "contracts/TweetNFT.sol",
  "abi": [
    {
      "inputs": [
        {
          "internalType": "address",
          "name": "_factoryAddress",
          "type": "address"
        }
      ],
      "stateMutability": "nonpayable",
      "type": "constructor"
    },
    {
      "inputs": [
        {
          "internalType": "address",
          "name": "sender",
          "type": "address"
        },
        {
          "internalType": "uint256",
          "name": "tokenId",
          "type": "uint256"
        },
        {
          "internalType": "address",
          "name": "owner",
          "type": "address"
        }
      ],
      "name": "ERC721IncorrectOwner",
      "type": "error"
    },
    {
      "inputs": [
        {
          "internalType": "address",
          "name": "operator",
          "type": "address"
        },
        {
          "internalType": "uint256",
          "name": "tokenId",
          "type": "uint256"
        }
      ],
      "name": "ERC721InsufficientApproval",
      "type": "error"
    },
    {
      "inputs": [
        {
          "internalType": "address",
          "name": "approver",
          "type": "address"
        }
      ],
      "name": "ERC721InvalidApprover",
      "type": "error"
    },
    {
      "inputs": [
        {
          "internalType": "address",
          "name": "operator",
          "type": "address"
        }
      ],
      "name": "ERC721InvalidOperator",
      "type": "error"
    },
    {
      "inputs": [
        {
          "internalType": "address",
          "name": "owner",
          "type": "address"
        }
      ],
      "name": "ERC721InvalidOwner",
      "type": "error"
    },
    {
      "inputs": [
        {
          "internalType": "address",
          "name": "receiver",
          "type": "address"
        }
      ],
      "name": "ERC721InvalidReceiver",
      "type": "error"
    },
    {
      "inputs": [
        {
          "internalType": "address",
          "name": "sender",
          "type": "address"
        }
      ],
      "name": "ERC721InvalidSender",
      "type": "error"
    },
    {
      "inputs": [
        {
          "internalType": "uint256",
          "name": "tokenId",
          "type": "uint256"
        }
      ],
      "name": "ERC721NonexistentToken",
      "type": "error"
    },
    {
      "inputs": [
        {
          "internalType": "address",
          "name": "owner",
          "type": "address"
        }
      ],
      "name": "OwnableInvalidOwner",
      "type": "error"
    },
    {
      "inputs": [
        {
          "internalType": "address",
          "name": "account",
          "type": "address"
        }
      ],
      "name": "OwnableUnauthorizedAccount",
      "type": "error"
    },
    {
      "anonymous": false,
      "inputs": [
        {
          "indexed": true,
          "internalType": "address",
          "name": "owner",
          "type": "address"
        },
        {
          "indexed": true,
          "internalType": "address",
          "name": "approved",
          "type": "address"
        },
        {
          "indexed": true,
          "internalType": "uint256",
          "name": "tokenId",
          "type": "uint256"
        }
      ],
      "name": "Approval",
      "type": "event"
    },
    {
      "anonymous": false,
      "inputs": [
        {
          "indexed": true,
          "internalType": "address",
          "name": "owner",
          "type": "address"
        },
        {
          "indexed": true,
          "internalType": "address",
          "name": "operator",
          "type": "address"
        },
        {
          "indexed": false,
          "internalType": "bool",
          "name": "approved",
          "type": "bool"
        }
      ],
      "name": "ApprovalForAll",
      "type": "event"
    },
    {
      "anonymous": false,
      "inputs": [
        {
          "indexed": false,
          "internalType": "uint256",
          "name": "_fromTokenId",
          "type": "uint256"
        },
        {
          "indexed": false,
          "internalType": "uint256",
          "name": "_toTokenId",
          "type": "uint256"
        }
      ],
      "name": "BatchMetadataUpdate",
      "type": "event"
    },
    {
      "anonymous": false,
      "inputs": [
        {
          "indexed": false,
          "internalType": "uint256",
          "name": "_tokenId",
          "type": "uint256"
        }
      ],
      "name": "MetadataUpdate",
      "type": "event"
    },
    {
      "anonymous": false,
      "inputs": [
        {
          "indexed": true,
          "internalType": "address",
          "name": "previousOwner",
          "type": "address"
        },
        {
          "indexed": true,
          "internalType": "address",
          "name": "newOwner",
          "type": "address"
        }
      ],
      "name": "OwnershipTransferred",
      "type": "event"
    },
    {
      "anonymous": false,
      "inputs": [
        {
          "indexed": true,
          "internalType": "address",
          "name": "from",
          "type": "address"
        },
        {
          "indexed": true,
          "internalType": "address",
          "name": "to",
          "type": "address"
        },
        {
          "indexed": true,
          "internalType": "uint256",
          "name": "tokenId",
          "type": "uint256"
        }
      ],
      "name": "Transfer",
      "type": "event"
    },
    {
      "inputs": [
        {
          "internalType": "address",
          "name": "to",
          "type": "address"
        },
        {
          "internalType": "uint256",
          "name": "tokenId",
          "type": "uint256"
        }
      ],
      "name": "approve",
      "outputs": [],
      "stateMutability": "nonpayable",
      "type": "function"
    },
    {
      "inputs": [
        {
          "internalType": "address",
          "name": "owner",
          "type": "address"
        }
      ],
      "name": "balanceOf",
      "outputs": [
        {
          "internalType": "uint256",
          "name": "",
          "type": "uint256"
        }
      ],
      "stateMutability": "view",
      "type": "function"
    },
    {
      "inputs": [],
      "name": "factoryAddress",
      "outputs": [
        {
          "internalType": "address",
          "name": "",
          "type": "address"
        }
      ],
      "stateMutability": "view",
      "type": "function"
    },
    {
      "inputs": [
        {
          "internalType": "uint256",
          "name": "tokenId",
          "type": "uint256"
        }
      ],
      "name": "getApproved",
      "outputs": [
        {
          "internalType": "address",
          "name": "",
          "type": "address"
        }
      ],
      "stateMutability": "view",
      "type": "function"
    },
    {
      "inputs": [
        {
          "internalType": "uint256",
          "name": "tweetId",
          "type": "uint256"
        }
      ],
      "name": "getTweetEngagement",
      "outputs": [
        {
          "internalType": "uint256",
          "name": "likes",
          "type": "uint256"
        },
        {
          "internalType": "uint256",
          "name": "retweets",
          "type": "uint256"
        },
        {
          "internalType": "uint256",
          "name": "comments",
          "type": "uint256"
        }
      ],
      "stateMutability": "view",
      "type": "function"
    },
    {
      "inputs": [
        {
          "internalType": "uint256",
          "name": "tweetId",
          "type": "uint256"
        }
      ],
      "name": "getTweetProfileId",
      "outputs": [
        {
          "internalType": "uint256",
          "name": "",
          "type": "uint256"
        }
      ],
      "stateMutability": "view",
      "type": "function"
    },
    {
      "inputs": [
        {
          "internalType": "address",
          "name": "owner",
          "type": "address"
        },
        {
          "internalType": "address",
          "name": "operator",
          "type": "address"
        }
      ],
      "name": "isApprovedForAll",
      "outputs": [
        {
          "internalType": "bool",
          "name": "",
          "type": "bool"
        }
      ],
      "stateMutability": "view",
      "type": "function"
    },
    {
      "inputs": [
        {
          "internalType": "address",
          "name": "to",
          "type": "address"
        },
        {
          "internalType": "uint256",
          "name": "tweetId",
          "type": "uint256"
        },
        {
          "internalType": "uint256",
          "name": "profileId",
          "type": "uint256"
        },
        {
          "internalType": "string",
          "name": "tokenURI",
          "type": "string"
        }
      ],
      "name": "mintTweet",
      "outputs": [
        {
          "internalType": "uint256",
          "name": "",
          "type": "uint256"
        }
      ],
      "stateMutability": "nonpayable",
      "type": "function"
    },
    {
      "inputs": [],
      "name": "name",
      "outputs": [
        {
          "internalType": "string",
          "name": "",
          "type": "string"
        }
      ],
      "stateMutability": "view",
      "type": "function"
    },
    {
      "inputs": [],
      "name": "owner",
      "outputs": [
        {
          "internalType": "address",
          "name": "",
          "type": "address"
        }
      ],
      "stateMutability": "view",
      "type": "function"
    },
    {
      "inputs": [
        {
          "internalType": "uint256",
          "name": "tokenId",
          "type": "uint256"
        }
      ],
      "name": "ownerOf",
      "outputs": [
        {
          "internalType": "address",
          "name": "",
          "type": "address"
        }
      ],
      "stateMutability": "view",
      "type": "function"
    },
    {
      "inputs": [],
      "name": "renounceOwnership",
      "outputs": [],
      "stateMutability": "nonpayable",
      "type": "function"
    },
    {
      "inputs": [
        {
          "internalType": "address",
          "name": "from",
          "type": "address"
        },
        {
          "internalType": "address",
          "name": "to",
          "type": "address"
        },
        {
          "internalType": "uint256",
          "name": "tokenId",
          "type": "uint256"
        }
      ],
      "name": "safeTransferFrom",
      "outputs": [],
      "stateMutability": "nonpayable",
      "type": "function"
    },
    {
      "inputs": [
        {
          "internalType": "address",
          "name": "from",
          "type": "address"
        },
        {
          "internalType": "address",
          "name": "to",
          "type": "address"
        },
        {
          "internalType": "uint256",
          "name": "tokenId",
          "type": "uint256"
        },
        {
          "internalType": "bytes",
          "name": "data",
          "type": "bytes"
        }
      ],
      "name": "safeTransferFrom",
      "outputs": [],
      "stateMutability": "nonpayable",
      "type": "function"
    },
    {
      "inputs": [
        {
          "internalType": "address",
          "name": "operator",
          "type": "address"
        },
        {
          "internalType": "bool",
          "name": "approved",
          "type": "bool"
        }
      ],
      "name": "setApprovalForAll",
      "outputs": [],
      "stateMutability": "nonpayable",
      "type": "function"
    },
    {
      "inputs": [
        {
          "internalType": "address",
          "name": "_factoryAddress",
          "type": "address"
        }
      ],
      "name": "setFactoryAddress",
      "outputs": [],
      "stateMutability": "nonpayable",
      "type": "function"
    },
    {
      "inputs": [
        {
          "internalType": "bytes4",
          "name": "interfaceId",
          "type": "bytes4"
        }
      ],
      "name": "supportsInterface",
      "outputs": [
        {
          "internalType": "bool",
          "name": "",
          "type": "bool"
        }
      ],
      "stateMutability": "view",
      "type": "function"
    },
    {
      "inputs": [],
      "name": "symbol",
      "outputs": [
        {
          "internalType": "string",
          "name": "",
          "type": "string"
        }
      ],
      "stateMutability": "view",
      "type": "function"
    },
    {
      "inputs": [
        {
          "internalType": "uint256",
          "name": "tokenId",
          "type": "uint256"
        }
      ],
      "name": "tokenURI",
      "outputs": [
        {
          "internalType": "string",
          "name": "",
          "type": "string"
        }
      ],
      "stateMutability": "view",
      "type": "function"
    },
    {
      "inputs": [
        {
          "internalType": "address",
          "name": "from",
          "type": "address"
        },
        {
          "internalType": "address",
          "name": "to",
          "type": "address"
        },
        {
          "internalType": "uint256",
          "name": "tokenId",
          "type": "uint256"
        }
      ],
      "name": "transferFrom",
      "outputs": [],
      "stateMutability": "nonpayable",
      "type": "function"
    },
    {
      "inputs": [
        {
          "internalType": "address",
          "name": "newOwner",
          "type": "address"
        }
      ],
      "name": "transferOwnership",
      "outputs": [],
      "stateMutability": "nonpayable",
      "type": "function"
    },
    {
      "inputs": [
        {
          "internalType": "uint256",
          "name": "",
          "type": "uint256"
        }
      ],
      "name": "tweets",
      "outputs": [
        {
          "internalType": "uint256",
          "name": "id",
          "type": "uint256"
        },
        {
          "internalType": "uint256",
          "name": "profileId",
          "type": "uint256"
        },
        {
          "internalType": "uint256",
          "name": "likes",
          "type": "uint256"
        },
        {
          "internalType": "uint256",
          "name": "retweets",
          "type": "uint256"
        },
        {
          "internalType": "uint256",
          "name": "comments",
          "type": "uint256"
        },
        {
          "internalType": "uint256",
          "name": "timestamp",
          "type": "uint256"
        }
      ],
      "stateMutability": "view",
      "type": "function"
    },
    {
      "inputs": [
        {
          "internalType": "uint256",
          "name": "tweetId",
          "type": "uint256"
        },
        {
          "internalType": "uint256",
          "name": "likes",
          "type": "uint256"
        },
        {
          "internalType": "uint256",
          "name": "retweets",
          "type": "uint256"
        },
        {
          "internalType": "uint256",
          "name": "comments",
          "type": "uint256"
        }
      ],
      "name": "updateEngagement",
      "outputs": [],
      "stateMutability": "nonpayable",
      "type": "function"
    }
  ],
  "bytecode": "0x60806040523480156200001157600080fd5b50604051620033d6380380620033d68339818101604052810190620000379190620002c9565b336040518060400160405280600b81526020017f536f6369616c54776565740000000000000000000000000000000000000000008152506040518060400160405280600481526020017f53545754000000000000000000000000000000000000000000000000000000008152508160009081620000b5919062000575565b508060019081620000c7919062000575565b505050600073ffffffffffffffffffffffffffffffffffffffff168173ffffffffffffffffffffffffffffffffffffffff16036200013f5760006040517f1e4fbdf70000000000000000000000000000000000000000000000000000000081526004016200013691906200066d565b60405180910390fd5b62000150816200019960201b60201c565b5080600960006101000a81548173ffffffffffffffffffffffffffffffffffffffff021916908373ffffffffffffffffffffffffffffffffffffffff160217905550506200068a565b6000600760009054906101000a900473ffffffffffffffffffffffffffffffffffffffff16905081600760006101000a81548173ffffffffffffffffffffffffffffffffffffffff021916908373ffffffffffffffffffffffffffffffffffffffff1602179055508173ffffffffffffffffffffffffffffffffffffffff168173ffffffffffffffffffffffffffffffffffffffff167f8be0079c531659141344cd1fd0a4f28419497f9722a3daafe3b4186f6b6457e060405160405180910390a35050565b600080fd5b600073ffffffffffffffffffffffffffffffffffffffff82169050919050565b6000620002918262000264565b9050919050565b620002a38162000284565b8114620002af57600080fd5b50565b600081519050620002c38162000298565b92915050565b600060208284031215620002e257620002e16200025f565b5b6000620002f284828501620002b2565b91505092915050565b600081519050919050565b7f4e487b7100000000000000000000000000000000000000000000000000000000600052604160045260246000fd5b7f4e487b7100000000000000000000000000000000000000000000000000000000600052602260045260246000fd5b600060028204905060018216806200037d57607f821691505b60208210810362000393576200039262000335565b5b50919050565b60008190508160005260206000209050919050565b60006020601f8301049050919050565b600082821b905092915050565b600060088302620003fd7fffffffffffffffffffffffffffffffffffffffffffffffffffffffffffffffff82620003be565b620004098683620003be565b95508019841693508086168417925050509392505050565b6000819050919050565b6000819050919050565b600062000456620004506200044a8462000421565b6200042b565b62000421565b9050919050565b6000819050919050565b620004728362000435565b6200048a62000481826200045d565b848454620003cb565b825550505050565b600090565b620004a162000492565b620004ae81848462000467565b505050565b5b81811015620004d657620004ca60008262000497565b600181019050620004b4565b5050565b601f8211156200052557620004ef8162000399565b620004fa84620003ae565b810160208510156200050a578190505b620005226200051985620003ae565b830182620004b3565b50505b505050565b600082821c905092915050565b60006200054a600019846008026200052a565b1980831691505092915050565b600062000565838362000537565b9150826002028217905092915050565b6200058082620002fb565b67ffffffffffffffff8111156200059c576200059b62000306565b5b620005a8825462000364565b620005b5828285620004da565b600060209050601f831160018114620005ed5760008415620005d8578287015190505b620005e4858262000557565b86555062000654565b601f198416620005fd8662000399565b60005b82811015620006275784890151825560018201915060208501945060208101905062000600565b8683101562000647578489015162000643601f89168262000537565b8355505b6001600288020188555050505b505050505050565b620006678162000284565b82525050565b60006020820190506200068460008301846200065c565b92915050565b612d3c806200069a6000396000f3fe608060405234801561001057600080fd5b506004361061014d5760003560e01c8063728533bd116100c3578063a22cb4651161007c578063a22cb465146103b2578063b88d4fde146103ce578063c87b56dd146103ea578063e8d857b01461041a578063e985e9c51461044f578063f2fde38b1461047f5761014d565b8063728533bd146102f057806383c17c55146103205780638da5cb5b1461033c57806394c9825d1461035a57806395d89b4114610376578063966dae0e146103945761014d565b806323b872dd1161011557806323b872dd1461021e57806342842e0e1461023a5780636352211e14610256578063656161021461028657806370a08231146102b6578063715018a6146102e65761014d565b806301ffc9a71461015257806306fdde0314610182578063081812fc146101a0578063095ea7b3146101d05780631f493fd4146101ec575b600080fd5b61016c60048036038101906101679190611fe7565b61049b565b604051610179919061202f565b60405180910390f35b61018a6104fc565b60405161019791906120da565b60405180910390f35b6101ba60048036038101906101b59190612132565b61058e565b6040516101c791906121a0565b60405180910390f35b6101ea60048036038101906101e591906121e7565b6105aa565b005b61020660048036038101906102019190612132565b6105c0565b60405161021593929190612236565b60405180910390f35b6102386004803603810190610233919061226d565b61066f565b005b610254600480360381019061024f919061226d565b610771565b005b610270600480360381019061026b9190612132565b610791565b60405161027d91906121a0565b60405180910390f35b6102a0600480360381019061029b91906123f5565b6107a3565b6040516102ad9190612478565b60405180910390f35b6102d060048036038101906102cb9190612493565b6108d6565b6040516102dd9190612478565b60405180910390f35b6102ee610990565b005b61030a60048036038101906103059190612132565b6109a4565b6040516103179190612478565b60405180910390f35b61033a60048036038101906103359190612493565b610a3a565b005b610344610a86565b60405161035191906121a0565b60405180910390f35b610374600480360381019061036f91906124c0565b610ab0565b005b61037e610bf0565b60405161038b91906120da565b60405180910390f35b61039c610c82565b6040516103a991906121a0565b60405180910390f35b6103cc60048036038101906103c79190612553565b610ca8565b005b6103e860048036038101906103e39190612634565b610cbe565b005b61040460048036038101906103ff9190612132565b610ce3565b60405161041191906120da565b60405180910390f35b610434600480360381019061042f9190612132565b610df6565b604051610446969594939291906126b7565b60405180910390f35b61046960048036038101906104649190612718565b610e32565b604051610476919061202f565b60405180910390f35b61049960048036038101906104949190612493565b610ec6565b005b6000634906490660e01b7bffffffffffffffffffffffffffffffffffffffffffffffffffffffff1916827bffffffffffffffffffffffffffffffffffffffffffffffffffffffff191614806104f557506104f482610f4c565b5b9050919050565b60606000805461050b90612787565b80601f016020809104026020016040519081016040528092919081815260200182805461053790612787565b80156105845780601f1061055957610100808354040283529160200191610584565b820191906000526020600020905b81548152906001019060200180831161056757829003601f168201915b5050505050905090565b60006105998261102e565b506105a3826110b6565b9050919050565b6105bc82826105b76110f3565b6110fb565b5050565b60008060008073ffffffffffffffffffffffffffffffffffffffff166105e58561110d565b73ffffffffffffffffffffffffffffffffffffffff160361063b576040517f08c379a000000000000000000000000000000000000000000000000000000000815260040161063290612804565b60405180910390fd5b6000600860008681526020019081526020016000209050806002015481600301548260040154935093509350509193909250565b600073ffffffffffffffffffffffffffffffffffffffff168273ffffffffffffffffffffffffffffffffffffffff16036106e15760006040517f64a0ae920000000000000000000000000000000000000000000000000000000081526004016106d891906121a0565b60405180910390fd5b60006106f583836106f06110f3565b61114a565b90508373ffffffffffffffffffffffffffffffffffffffff168173ffffffffffffffffffffffffffffffffffffffff161461076b578382826040517f64283d7b00000000000000000000000000000000000000000000000000000000815260040161076293929190612824565b60405180910390fd5b50505050565b61078c83838360405180602001604052806000815250610cbe565b505050565b600061079c8261102e565b9050919050565b6000600960009054906101000a900473ffffffffffffffffffffffffffffffffffffffff1673ffffffffffffffffffffffffffffffffffffffff163373ffffffffffffffffffffffffffffffffffffffff1614610835576040517f08c379a000000000000000000000000000000000000000000000000000000000815260040161082c906128cd565b60405180910390fd5b61083f8585611364565b610849848361145d565b6040518060c001604052808581526020018481526020016000815260200160008152602001600081526020014281525060086000868152602001908152602001600020600082015181600001556020820151816001015560408201518160020155606082015181600301556080820151816004015560a08201518160050155905050839050949350505050565b60008073ffffffffffffffffffffffffffffffffffffffff168273ffffffffffffffffffffffffffffffffffffffff16036109495760006040517f89c62b6400000000000000000000000000000000000000000000000000000000815260040161094091906121a0565b60405180910390fd5b600360008373ffffffffffffffffffffffffffffffffffffffff1673ffffffffffffffffffffffffffffffffffffffff168152602001908152602001600020549050919050565b6109986114b9565b6109a26000611540565b565b60008073ffffffffffffffffffffffffffffffffffffffff166109c68361110d565b73ffffffffffffffffffffffffffffffffffffffff1603610a1c576040517f08c379a0000000000000000000000000000000000000000000000000000000008152600401610a1390612804565b60405180910390fd5b60086000838152602001908152602001600020600101549050919050565b610a426114b9565b80600960006101000a81548173ffffffffffffffffffffffffffffffffffffffff021916908373ffffffffffffffffffffffffffffffffffffffff16021790555050565b6000600760009054906101000a900473ffffffffffffffffffffffffffffffffffffffff16905090565b600960009054906101000a900473ffffffffffffffffffffffffffffffffffffffff1673ffffffffffffffffffffffffffffffffffffffff163373ffffffffffffffffffffffffffffffffffffffff1614610b40576040517f08c379a0000000000000000000000000000000000000000000000000000000008152600401610b37906128cd565b60405180910390fd5b600073ffffffffffffffffffffffffffffffffffffffff16610b618561110d565b73ffffffffffffffffffffffffffffffffffffffff1603610bb7576040517f08c379a0000000000000000000000000000000000000000000000000000000008152600401610bae90612804565b60405180910390fd5b60006008600086815260200190815260200160002090508381600201819055508281600301819055508181600401819055505050505050565b606060018054610bff90612787565b80601f0160208091040260200160405190810160405280929190818152602001828054610c2b90612787565b8015610c785780601f10610c4d57610100808354040283529160200191610c78565b820191906000526020600020905b815481529060010190602001808311610c5b57829003601f168201915b5050505050905090565b600960009054906101000a900473ffffffffffffffffffffffffffffffffffffffff1681565b610cba610cb36110f3565b8383611606565b5050565b610cc984848461066f565b610cdd610cd46110f3565b85858585611775565b50505050565b6060610cee8261102e565b506000600660008481526020019081526020016000208054610d0f90612787565b80601f0160208091040260200160405190810160405280929190818152602001828054610d3b90612787565b8015610d885780601f10610d5d57610100808354040283529160200191610d88565b820191906000526020600020905b815481529060010190602001808311610d6b57829003601f168201915b505050505090506000610d99611926565b90506000815103610dae578192505050610df1565b600082511115610de3578082604051602001610dcb929190612929565b60405160208183030381529060405292505050610df1565b610dec8461193d565b925050505b919050565b60086020528060005260406000206000915090508060000154908060010154908060020154908060030154908060040154908060050154905086565b6000600560008473ffffffffffffffffffffffffffffffffffffffff1673ffffffffffffffffffffffffffffffffffffffff16815260200190815260200160002060008373ffffffffffffffffffffffffffffffffffffffff1673ffffffffffffffffffffffffffffffffffffffff16815260200190815260200160002060009054906101000a900460ff16905092915050565b610ece6114b9565b600073ffffffffffffffffffffffffffffffffffffffff168173ffffffffffffffffffffffffffffffffffffffff1603610f405760006040517f1e4fbdf7000000000000000000000000000000000000000000000000000000008152600401610f3791906121a0565b60405180910390fd5b610f4981611540565b50565b60007f80ac58cd000000000000000000000000000000000000000000000000000000007bffffffffffffffffffffffffffffffffffffffffffffffffffffffff1916827bffffffffffffffffffffffffffffffffffffffffffffffffffffffff1916148061101757507f5b5e139f000000000000000000000000000000000000000000000000000000007bffffffffffffffffffffffffffffffffffffffffffffffffffffffff1916827bffffffffffffffffffffffffffffffffffffffffffffffffffffffff1916145b806110275750611026826119a6565b5b9050919050565b60008061103a8361110d565b9050600073ffffffffffffffffffffffffffffffffffffffff168173ffffffffffffffffffffffffffffffffffffffff16036110ad57826040517f7e2732890000000000000000000000000000000000000000000000000000000081526004016110a49190612478565b60405180910390fd5b80915050919050565b60006004600083815260200190815260200160002060009054906101000a900473ffffffffffffffffffffffffffffffffffffffff169050919050565b600033905090565b6111088383836001611a10565b505050565b60006002600083815260200190815260200160002060009054906101000a900473ffffffffffffffffffffffffffffffffffffffff169050919050565b6000806111568461110d565b9050600073ffffffffffffffffffffffffffffffffffffffff168373ffffffffffffffffffffffffffffffffffffffff161461119857611197818486611bd5565b5b600073ffffffffffffffffffffffffffffffffffffffff168173ffffffffffffffffffffffffffffffffffffffff1614611229576111da600085600080611a10565b6001600360008373ffffffffffffffffffffffffffffffffffffffff1673ffffffffffffffffffffffffffffffffffffffff168152602001908152602001600020600082825403925050819055505b600073ffffffffffffffffffffffffffffffffffffffff168573ffffffffffffffffffffffffffffffffffffffff16146112ac576001600360008773ffffffffffffffffffffffffffffffffffffffff1673ffffffffffffffffffffffffffffffffffffffff168152602001908152602001600020600082825401925050819055505b846002600086815260200190815260200160002060006101000a81548173ffffffffffffffffffffffffffffffffffffffff021916908373ffffffffffffffffffffffffffffffffffffffff160217905550838573ffffffffffffffffffffffffffffffffffffffff168273ffffffffffffffffffffffffffffffffffffffff167fddf252ad1be2c89b69c2b068fc378daa952ba7f163c4a11628f55a4df523b3ef60405160405180910390a4809150509392505050565b600073ffffffffffffffffffffffffffffffffffffffff168273ffffffffffffffffffffffffffffffffffffffff16036113d65760006040517f64a0ae920000000000000000000000000000000000000000000000000000000081526004016113cd91906121a0565b60405180910390fd5b60006113e48383600061114a565b9050600073ffffffffffffffffffffffffffffffffffffffff168173ffffffffffffffffffffffffffffffffffffffff16146114585760006040517f73c6ac6e00000000000000000000000000000000000000000000000000000000815260040161144f91906121a0565b60405180910390fd5b505050565b8060066000848152602001908152602001600020908161147d9190612af9565b507ff8e1a15aba9398e019f0b49df1a4fde98ee17ae345cb5f6b5e2c27f5033e8ce7826040516114ad9190612478565b60405180910390a15050565b6114c16110f3565b73ffffffffffffffffffffffffffffffffffffffff166114df610a86565b73ffffffffffffffffffffffffffffffffffffffff161461153e576115026110f3565b6040517f118cdaa700000000000000000000000000000000000000000000000000000000815260040161153591906121a0565b60405180910390fd5b565b6000600760009054906101000a900473ffffffffffffffffffffffffffffffffffffffff16905081600760006101000a81548173ffffffffffffffffffffffffffffffffffffffff021916908373ffffffffffffffffffffffffffffffffffffffff1602179055508173ffffffffffffffffffffffffffffffffffffffff168173ffffffffffffffffffffffffffffffffffffffff167f8be0079c531659141344cd1fd0a4f28419497f9722a3daafe3b4186f6b6457e060405160405180910390a35050565b600073ffffffffffffffffffffffffffffffffffffffff168273ffffffffffffffffffffffffffffffffffffffff160361167757816040517f5b08ba1800000000000000000000000000000000000000000000000000000000815260040161166e91906121a0565b60405180910390fd5b80600560008573ffffffffffffffffffffffffffffffffffffffff1673ffffffffffffffffffffffffffffffffffffffff16815260200190815260200160002060008473ffffffffffffffffffffffffffffffffffffffff1673ffffffffffffffffffffffffffffffffffffffff16815260200190815260200160002060006101000a81548160ff0219169083151502179055508173ffffffffffffffffffffffffffffffffffffffff168373ffffffffffffffffffffffffffffffffffffffff167f17307eab39ab6107e8899845ad3d59bd9653f200f220920489ca2b5937696c3183604051611768919061202f565b60405180910390a3505050565b60008373ffffffffffffffffffffffffffffffffffffffff163b111561191f578273ffffffffffffffffffffffffffffffffffffffff1663150b7a02868685856040518563ffffffff1660e01b81526004016117d49493929190612c20565b6020604051808303816000875af192505050801561181057506040513d601f19601f8201168201806040525081019061180d9190612c81565b60015b611894573d8060008114611840576040519150601f19603f3d011682016040523d82523d6000602084013e611845565b606091505b50600081510361188c57836040517f64a0ae9200000000000000000000000000000000000000000000000000000000815260040161188391906121a0565b60405180910390fd5b805181602001fd5b63150b7a0260e01b7bffffffffffffffffffffffffffffffffffffffffffffffffffffffff1916817bffffffffffffffffffffffffffffffffffffffffffffffffffffffff19161461191d57836040517f64a0ae9200000000000000000000000000000000000000000000000000000000815260040161191491906121a0565b60405180910390fd5b505b5050505050565b606060405180602001604052806000815250905090565b60606119488261102e565b506000611953611926565b90506000815111611973576040518060200160405280600081525061199e565b8061197d84611c99565b60405160200161198e929190612929565b6040516020818303038152906040525b915050919050565b60007f01ffc9a7000000000000000000000000000000000000000000000000000000007bffffffffffffffffffffffffffffffffffffffffffffffffffffffff1916827bffffffffffffffffffffffffffffffffffffffffffffffffffffffff1916149050919050565b8080611a495750600073ffffffffffffffffffffffffffffffffffffffff168273ffffffffffffffffffffffffffffffffffffffff1614155b15611b7d576000611a598461102e565b9050600073ffffffffffffffffffffffffffffffffffffffff168373ffffffffffffffffffffffffffffffffffffffff1614158015611ac457508273ffffffffffffffffffffffffffffffffffffffff168173ffffffffffffffffffffffffffffffffffffffff1614155b8015611ad75750611ad58184610e32565b155b15611b1957826040517fa9fbf51f000000000000000000000000000000000000000000000000000000008152600401611b1091906121a0565b60405180910390fd5b8115611b7b57838573ffffffffffffffffffffffffffffffffffffffff168273ffffffffffffffffffffffffffffffffffffffff167f8c5be1e5ebec7d5bd14f71427d1e84f3dd0314c0f7b2291e5b200ac8c7c3b92560405160405180910390a45b505b836004600085815260200190815260200160002060006101000a81548173ffffffffffffffffffffffffffffffffffffffff021916908373ffffffffffffffffffffffffffffffffffffffff16021790555050505050565b611be0838383611d67565b611c9457600073ffffffffffffffffffffffffffffffffffffffff168373ffffffffffffffffffffffffffffffffffffffff1603611c5557806040517f7e273289000000000000000000000000000000000000000000000000000000008152600401611c4c9190612478565b60405180910390fd5b81816040517f177e802f000000000000000000000000000000000000000000000000000000008152600401611c8b929190612cae565b60405180910390fd5b505050565b606060006001611ca884611e28565b01905060008167ffffffffffffffff811115611cc757611cc66122ca565b5b6040519080825280601f01601f191660200182016040528015611cf95781602001600182028036833780820191505090505b509050600082602001820190505b600115611d5c578080600190039150507f3031323334353637383961626364656600000000000000000000000000000000600a86061a8153600a8581611d5057611d4f612cd7565b5b04945060008503611d07575b819350505050919050565b60008073ffffffffffffffffffffffffffffffffffffffff168373ffffffffffffffffffffffffffffffffffffffff1614158015611e1f57508273ffffffffffffffffffffffffffffffffffffffff168473ffffffffffffffffffffffffffffffffffffffff161480611de05750611ddf8484610e32565b5b80611e1e57508273ffffffffffffffffffffffffffffffffffffffff16611e06836110b6565b73ffffffffffffffffffffffffffffffffffffffff16145b5b90509392505050565b600080600090507a184f03e93ff9f4daa797ed6e38ed64bf6a1f0100000000000000008310611e86577a184f03e93ff9f4daa797ed6e38ed64bf6a1f0100000000000000008381611e7c57611e7b612cd7565b5b0492506040810190505b6d04ee2d6d415b85acef81000000008310611ec3576d04ee2d6d415b85acef81000000008381611eb957611eb8612cd7565b5b0492506020810190505b662386f26fc100008310611ef257662386f26fc100008381611ee857611ee7612cd7565b5b0492506010810190505b6305f5e1008310611f1b576305f5e1008381611f1157611f10612cd7565b5b0492506008810190505b6127108310611f40576127108381611f3657611f35612cd7565b5b0492506004810190505b60648310611f635760648381611f5957611f58612cd7565b5b0492506002810190505b600a8310611f72576001810190505b80915050919050565b6000604051905090565b600080fd5b600080fd5b60007fffffffff0000000000000000000000000000000000000000000000000000000082169050919050565b611fc481611f8f565b8114611fcf57600080fd5b50565b600081359050611fe181611fbb565b92915050565b600060208284031215611ffd57611ffc611f85565b5b600061200b84828501611fd2565b91505092915050565b60008115159050919050565b61202981612014565b82525050565b60006020820190506120446000830184612020565b92915050565b600081519050919050565b600082825260208201905092915050565b60005b83811015612084578082015181840152602081019050612069565b60008484015250505050565b6000601f19601f8301169050919050565b60006120ac8261204a565b6120b68185612055565b93506120c6818560208601612066565b6120cf81612090565b840191505092915050565b600060208201905081810360008301526120f481846120a1565b905092915050565b6000819050919050565b61210f816120fc565b811461211a57600080fd5b50565b60008135905061212c81612106565b92915050565b60006020828403121561214857612147611f85565b5b60006121568482850161211d565b91505092915050565b600073ffffffffffffffffffffffffffffffffffffffff82169050919050565b600061218a8261215f565b9050919050565b61219a8161217f565b82525050565b60006020820190506121b56000830184612191565b92915050565b6121c48161217f565b81146121cf57600080fd5b50565b6000813590506121e1816121bb565b92915050565b600080604083850312156121fe576121fd611f85565b5b600061220c858286016121d2565b925050602061221d8582860161211d565b9150509250929050565b612230816120fc565b82525050565b600060608201905061224b6000830186612227565b6122586020830185612227565b6122656040830184612227565b949350505050565b60008060006060848603121561228657612285611f85565b5b6000612294868287016121d2565b93505060206122a5868287016121d2565b92505060406122b68682870161211d565b9150509250925092565b600080fd5b600080fd5b7f4e487b7100000000000000000000000000000000000000000000000000000000600052604160045260246000fd5b61230282612090565b810181811067ffffffffffffffff82111715612321576123206122ca565b5b80604052505050565b6000612334611f7b565b905061234082826122f9565b919050565b600067ffffffffffffffff8211156123605761235f6122ca565b5b61236982612090565b9050602081019050919050565b82818337600083830152505050565b600061239861239384612345565b61232a565b9050828152602081018484840111156123b4576123b36122c5565b5b6123bf848285612376565b509392505050565b600082601f8301126123dc576123db6122c0565b5b81356123ec848260208601612385565b91505092915050565b6000806000806080858703121561240f5761240e611f85565b5b600061241d878288016121d2565b945050602061242e8782880161211d565b935050604061243f8782880161211d565b925050606085013567ffffffffffffffff8111156124605761245f611f8a565b5b61246c878288016123c7565b91505092959194509250565b600060208201905061248d6000830184612227565b92915050565b6000602082840312156124a9576124a8611f85565b5b60006124b7848285016121d2565b91505092915050565b600080600080608085870312156124da576124d9611f85565b5b60006124e88782880161211d565b94505060206124f98782880161211d565b935050604061250a8782880161211d565b925050606061251b8782880161211d565b91505092959194509250565b61253081612014565b811461253b57600080fd5b50565b60008135905061254d81612527565b92915050565b6000806040838503121561256a57612569611f85565b5b6000612578858286016121d2565b92505060206125898582860161253e565b9150509250929050565b600067ffffffffffffffff8211156125ae576125ad6122ca565b5b6125b782612090565b9050602081019050919050565b60006125d76125d284612593565b61232a565b9050828152602081018484840111156125f3576125f26122c5565b5b6125fe848285612376565b509392505050565b600082601f83011261261b5761261a6122c0565b5b813561262b8482602086016125c4565b91505092915050565b6000806000806080858703121561264e5761264d611f85565b5b600061265c878288016121d2565b945050602061266d878288016121d2565b935050604061267e8782880161211d565b925050606085013567ffffffffffffffff81111561269f5761269e611f8a565b5b6126ab87828801612606565b91505092959194509250565b600060c0820190506126cc6000830189612227565b6126d96020830188612227565b6126e66040830187612227565b6126f36060830186612227565b6127006080830185612227565b61270d60a0830184612227565b979650505050505050565b6000806040838503121561272f5761272e611f85565b5b600061273d858286016121d2565b925050602061274e858286016121d2565b9150509250929050565b7f4e487b7100000000000000000000000000000000000000000000000000000000600052602260045260246000fd5b6000600282049050600182168061279f57607f821691505b6020821081036127b2576127b1612758565b5b50919050565b7f547765657420646f6573206e6f74206578697374000000000000000000000000600082015250565b60006127ee601483612055565b91506127f9826127b8565b602082019050919050565b6000602082019050818103600083015261281d816127e1565b9050919050565b60006060820190506128396000830186612191565b6128466020830185612227565b6128536040830184612191565b949350505050565b7f4f6e6c7920666163746f72792063616e2063616c6c20746869732066756e637460008201527f696f6e0000000000000000000000000000000000000000000000000000000000602082015250565b60006128b7602383612055565b91506128c28261285b565b604082019050919050565b600060208201905081810360008301526128e6816128aa565b9050919050565b600081905092915050565b60006129038261204a565b61290d81856128ed565b935061291d818560208601612066565b80840191505092915050565b600061293582856128f8565b915061294182846128f8565b91508190509392505050565b60008190508160005260206000209050919050565b60006020601f8301049050919050565b600082821b905092915050565b6000600883026129af7fffffffffffffffffffffffffffffffffffffffffffffffffffffffffffffffff82612972565b6129b98683612972565b95508019841693508086168417925050509392505050565b6000819050919050565b60006129f66129f16129ec846120fc565b6129d1565b6120fc565b9050919050565b6000819050919050565b612a10836129db565b612a24612a1c826129fd565b84845461297f565b825550505050565b600090565b612a39612a2c565b612a44818484612a07565b505050565b5b81811015612a6857612a5d600082612a31565b600181019050612a4a565b5050565b601f821115612aad57612a7e8161294d565b612a8784612962565b81016020851015612a96578190505b612aaa612aa285612962565b830182612a49565b50505b505050565b600082821c905092915050565b6000612ad060001984600802612ab2565b1980831691505092915050565b6000612ae98383612abf565b9150826002028217905092915050565b612b028261204a565b67ffffffffffffffff811115612b1b57612b1a6122ca565b5b612b258254612787565b612b30828285612a6c565b600060209050601f831160018114612b635760008415612b51578287015190505b612b5b8582612add565b865550612bc3565b601f198416612b718661294d565b60005b82811015612b9957848901518255600182019150602085019450602081019050612b74565b86831015612bb65784890151612bb2601f891682612abf565b8355505b6001600288020188555050505b505050505050565b600081519050919050565b600082825260208201905092915050565b6000612bf282612bcb565b612bfc8185612bd6565b9350612c0c818560208601612066565b612c1581612090565b840191505092915050565b6000608082019050612c356000830187612191565b612c426020830186612191565b612c4f6040830185612227565b8181036060830152612c618184612be7565b905095945050505050565b600081519050612c7b81611fbb565b92915050565b600060208284031215612c9757612c96611f85565b5b6000612ca584828501612c6c565b91505092915050565b6000604082019050612cc36000830185612191565b612cd06020830184612227565b9392505050565b7f4e487b7100000000000000000000000000000000000000000000000000000000600052601260045260246000fdfea26469706673582212201dab602f4f1a40c041d018934caa4b0efb817e5be25ac87dd95447488f284d1564736f6c63430008180033",
  "linkReferences": {},
  "deployedLinkReferences": {}
}